:100000000C943A000C9457000C9457000C94570031
:100010000C9457000C9457000C9457000C94570004
:100020000C9457000C9457000C9457000C945700F4
:100030000C9457000C9457000C9457000C945700E4
:100040000C9457000C9457000C9457000C945700D4
:100050000C9457000C9457000C9457000C945700C4
:100060000C9457000C9457000C9457000C945700B4
:100070000C94570011241FBECFEFD4E0DEBFCDBFDC
:1000800013E0A0E0B1E0E8EBFDE002C005900D92C6
:10009000AA33B107D9F713E0AAE3B3E001C01D9278
:1000A000A135B107E1F70E9425060C94DA060C94FD
:1000B0000000CF93DF9300D0CDB7DEB789831A82DB
:1000C000CE0101960E947D050F900F90DF91CF9198
:1000D00008950C9491010C94AD010C9497010C942B
:1000E0009D010E94A30181E008950C94B401CF9377
:1000F000DF9300D01F92CDB7DEB780ED90E09A83FA
:10010000898388E08B83509A589A0E9466018FE613
:1001100090E00E94FD0081E090E00E94540161E0C7
:1001200070E081E090E00E943F010E942B01CE012F
:1001300001960E9479010F900F900F90DF91CF915F
:100140000895CF93DF93DB01E0E0F0E0C1E0D0E081
:1001500016C07D91FE01072E02C0EE0FFF1F0A940C
:10016000E2F73196F695E795E80FF91F02C0F6958C
:10017000E7957A95E2F7EF3FF10529F020F05A2F45
:10018000561B541730F3D901EC93852FDF91CF9193
:100190000895E1E6F0E080E880831082A89584B7B6
:1001A000877F84BFE0E6F0E08081886180831082F1
:1001B00008951092800084E0809381001092850061
:1001C0001092840008952091840030918500C90127
:1001D00008952091840030918500A901481B590B96
:1001E000483E5340B0F7C9010895209184003091F2
:1001F0008500820F931F0C94E900CF93DF931F9229
:10020000CDB7DEB79E012F5F3F4F45E062E173E05F
:100210000E94A100982F9F5F909300012981215097
:1002200027BD18BC25B5277029F025B59770287F04
:10023000922B95BD298130E0E82FF0E0EE5EFC4F77
:10024000008002C0220F331F0A94E2F7C9010F9009
:10025000DF91CF91089585B3897F85BB95B5809156
:1002600000018770987F892B85BD089585B5887FAB
:1002700085BD089585B382FB882780F9089500978E
:1002800019F0019781F407C084B56295660F660F77
:10029000607C8F7306C084B5637077276295607F3A
:1002A0008F7C682B64BD0895009719F0019761F465
:1002B00003C084B58C7F05C084B58E7F84BD84B5B2
:1002C000826084BD81E0089580E0089514BC15BC6F
:1002D00016BC18BC81E090E00E94540181E00895B2
:1002E0009C01215031093093CD0081508093CC0086
:1002F0000895CF93DF93EC01888199810E9470016A
:100300008A81982F9550943008F088E098E1909376
:10031000C9008550880F8093CA0081E0DF91CF919A
:1003200008958091C800881F8827881F08958091AC
:10033000C80085FB882780F908958091C80086FB56
:10034000882780F90895CF93C82F0E9497018823AA
:10035000E1F3C093CE00CF9108958091C80087FF4C
:10036000FCCF8091CE000895CF93DF93EC0102C0C3
:100370000E94A30189918111FBCFDF91CF91089554
:100380008530A0F4673090F421E030E0062E01C003
:10039000220F0A94EAF7E82FF0E0822F8095E65CBE
:1003A000FC4F908189234111822B808308958530F1
:1003B00088F4673078F421E030E0062E01C0220F87
:1003C0000A94EAF7E82FF0E0E65CFC4F9081922374
:1003D00081E009F480E0089560913F03E62FF0E0AA
:1003E000E65CFC4F80810E94320280913F038F5F68
:1003F000853018F480933F03089510923F030895C9
:1004000010923A0310923B0310923C0310923D036A
:1004100010923E0308950E9419020C940002FC0100
:10042000FF2784A1892B84A385A1892B85A381E043
:100430000895CF93DF93C7E1D3E0899199910E940A
:100440000F0283E0C532D807C1F7C5E2D3E0899136
:1004500099910E940F0283E0CF32D807C1F7DF9154
:10046000CF910895E0914003F0E0EE0FFF1FEB5DA8
:10047000FC4F20813181F901FF2795A1932B95A392
:10048000E7E1F3E020813181D901BB2780FF07C07C
:1004900095962C919597932F9095922304C09596BD
:1004A0009C919597932B95969C938695329693E085
:1004B000E532F90739F7E62FF0E0EE0FFF1FEB5DAD
:1004C000FC4F80819181FC01FF2725A1892F809518
:1004D000822385A36093400308956230710519F16A
:1004E00020F46130710559F515C06330710521F0B4
:1004F0006430710521F509C0FC01FF2724A1892F73
:10050000292B24A395A180950CC0FC01FF2784A171
:10051000892B0FC0FC01FF2784A19095892384A318
:1005200085A1892309C0FC01FF2784A1292F2095DB
:10053000822384A385A1892B85A381E0089580E08F
:100540000895E82FF0E0EE0FFF1FEF5BFC4F808176
:10055000882329F081E090E02181222311F080E0BE
:1005600090E00895E82FF0E0EE0FFF1FEF5BFC4FE7
:100570008081811105C081E090E02181211102C0BC
:1005800080E090E00895E82FF0E0EE0FFF1FEF5BB2
:10059000FC4F80810895E82FF0E0EE0FFF1FEF5B26
:1005A000FC4F81E09081911180E008954F925F921D
:1005B0007F928F929F92AF92BF92CF92DF92EF92F3
:1005C000FF920F931F93CF93DF9300D0CDB7DEB789
:1005D00051E4452E53E0552E62E4E62E63E0F62EFC
:1005E0007FE2C72E73E0D72EE2E07E2EF2018081FB
:1005F000F7018083F601019111916F01480199245F
:10060000F40194A1A12EBB2485A18A219A2129F06D
:10061000882341F024E030E00AC0882331F022E052
:1006200030E005C023E030E002C021E030E064E0CB
:1006300070E0C80129833A830E946D0262E070E095
:10064000C8010E946D02872D8A95F1F7F40183A1FC
:1006500090E08A219B2141E029813A81892B09F090
:1006600040E0F2014083B901C8010E946D02F2E04E
:100670004F0E511C82E0E80EF11CEBE44E16E3E055
:100680005E0609F0B3CF0F900F90DF91CF911F91CD
:100690000F91FF90EF90DF90CF90BF90AF909F9021
:1006A0008F907F905F904F9008950895009791F0FC
:1006B000FC012381621B67FD0AC0772767FD7095E7
:1006C000248130E081E090E06217730724F080E03D
:1006D00090E0089580E00895CF93DF93FC01822F8E
:1006E000309789F19181491770F52281821758F569
:1006F0002381621B67FD27C0A62FBB27A7FDB095EE
:10070000C481D0E0AC17BD07F4F4692F0E945E06E7
:10071000480F6581CD0170E00E946706DC011696E6
:10072000842F869586958695AE0FBF1FA80FB11DA5
:100730002C9130E0477002C0359527954A95E2F735
:10074000822F817001C080E0DF91CF910895CF9317
:10075000DF93EC010E94D9009E0140E050E062E18D
:100760007AE780E090E00E948D0630934C0320935E
:100770004B03DF91CF91089580914D0390914E03EB
:100780000E94E90080914D0390914E0320914B030C
:1007900030914C03820F931F90934E0380934D032F
:1007A0000895462F692F0C94C0014F925F926F926B
:1007B0007F928F929F92AF92BF92CF92DF92EF92F1
:1007C000FF920F931F93CF93DF931F92CDB7DEB7A6
:1007D000662E742E462E552447FC5094481A510814
:1007E00087FD5394072F112707FD1095091B110949
:1007F00097FD139557FC04C0CC24C394D12C03C09F
:10080000CC24CA94DC2C17FD04C0AA24A394B12CD8
:1008100003C0AA24AA94BA2C57FE03C05194419451
:10082000510817FF03C01195019511094016510693
:10083000A4F07201F594E7944C010CC0672DC4013B
:100840000E94D103E01AF10AF7FE03C0E40CF51C84
:100850009A0C8C0C8610F2CF15C07801F594E794B1
:100860004C010EC0672DC40179830E94D103E418A6
:10087000F5087981F7FE03C0E00EF11E8C0C9A0C8E
:100880009712F0CF672DC4010F90DF91CF911F9188
:100890000F91FF90EF90DF90CF90BF90AF909F901F
:1008A0008F907F906F905F904F900C94D103FF9248
:1008B0000F931F93CF93DF93182FF92E062FC72F77
:1008C000D42F792F0E94D5034D2F612F7C2F812F9C
:1008D0009F2D0E94D5034D2F602F7C2F802F9F2DA1
:1008E0000E94D5034D2F602F7C2F812F9C2F0E94BB
:1008F000D503DF91CF911F910F91FF9008950E9432
:1009000000021092110110920D010895DF92EF92F2
:10091000FF920F931F93CF93DF93E82E8B01F62E58
:10092000D12E2091030130910401C0E02130310526
:10093000C1F049C02D2F4C2F6E2DCF010E946C03AA
:10094000682F8D2F800F9D2D0E94D103DF5F01C086
:10095000D0E0E0910901F0910A018281D81750F3AB
:10096000CF5FD12EDC1AE0910901F0910A0181815B
:10097000C81770F3C0E007C060E08C2F800F9D2D7A
:100980000E94D103CF5FE0910901F0910A018281B9
:10099000C81790F3DA9431C02D2F4C2F6E2DCF0154
:1009A0000E946C03682F8F2D9D2F910F0E94D10301
:1009B000DF5F01C0D0E0E0910901F0910A0182817E
:1009C000D81750F3CF5FFC2EF00EE0910901F091A3
:1009D0000A018181C81770F3C0E007C060E08F2D65
:1009E0009C2F910F0E94D103CF5FE0910901F091FC
:1009F0000A018281C81790F3F3948F2D9D2DDF910A
:100A0000CF911F910F91FF90EF90DF9008951F936A
:100A1000CF93DF93182FEC0109C00E948604BC011C
:100A20009C2F911B65303CF477FD05C09C2F911BDA
:100A300089918111F2CF892FDF91CF911F91089574
:100A40000F931F93CF93DF938C019B0110920D01A5
:100A500010921001C0910901D0910A01209709F468
:100A600047C06091070170910801898190E00E9460
:100A70006706BC0180910B0190910C010E947906E0
:100A8000CB016AE070E00E94670690930F018093AB
:100A90000E01309306012093050140E250E0B801B9
:100AA00081E191E00E94CB06209101013091020189
:100AB00021303105E9F4D8010D900020E9F7CD018E
:100AC0000197698170E06F5F7F4F801B0E945E0617
:100AD000815020910301309104012130310511F43E
:100AE00097E001C095E0981718F48EEF80931001FD
:100AF000DF91CF911F910F910895209103013091C3
:100B000004012130310511F476E001C070E060E0AD
:100B10000E9420050895E7E0F1E0808311820895A6
:100B200090930201809301010895909304018093B2
:100B30000301089590930A01809309010895CF93CA
:100B400080914F03909150030196909350038093AE
:100B50004F0320910E0130910F018217930708F483
:100B600063C01092500310924F03E0910D01F0E02A
:100B7000EF5FFE4F8089811102C010920D01C0917C
:100B80000D018C2F90E0FC01EF5FFE4F20892223A6
:100B900009F44AC02091010130910201211531056B
:100BA00021F02130310541F511C0209110012111B2
:100BB00023C060910501709106018F5E9E4F0E94D7
:100BC0000705C150C80FC0930D0116C06091050103
:100BD0007091060120910301309104018091100170
:100BE0002130310511F4780F01C0681B8C2F90E083
:100BF0008F5E9E4F0E940705209110012F5F20936A
:100C00001001332727FD3095E0910901F0910A0189
:100C1000818190E0821793073CF41092100180913B
:100C20000D018F5F80930D01CF910C94EC01909397
:100C30000C0180930B010E940B0284E190E09093E1
:100C40000801809307010C947F040E94C90084EF7F
:100C500091E00E94170681E391E00E949A058AE0E4
:100C60000E948B050E9455030E94770084EF91E05B
:100C70000E94A703C1E40E94BC030E949F050E943A
:100C8000D60280E00E94A1028111CF5F82E00E9423
:100C9000A1028111C15084E00E94A102882319F0B1
:100CA0008C2F0E9471000E946900882319F00E9415
:100CB0006B00C82F8C2F0E945900DDCF002480FDCF
:100CC000060E660F11F08695D1F7802D08955527F1
:100CD000002480FF02C0060E571F660F771F6115A4
:100CE000710521F096958795009799F7952F802D9E
:100CF0000895AA1BBB1B51E107C0AA1FBB1FA61763
:100D0000B70710F0A61BB70B881F991F5A95A9F7B4
:100D100080959095BC01CD010895052E97FB16F4A2
:100D2000009407D057FD0DD00E94A90607FC09D0FA
:100D30007EF490958095709561957F4F8F4F9F4F72
:100D4000089550954095309521953F4F4F4F5F4FF7
:100D50000895A1E21A2EAA1BBB1BFD010DC0AA1FFC
:100D6000BB1FEE1FFF1FA217B307E407F50720F014
:100D7000A21BB30BE40BF50B661F771F881F991F8F
:100D80001A9469F760957095809590959B01AC01D8
:100D9000BD01CF010895FB01DC014150504048F0F6
:100DA00001900D920020C9F701C01D9241505040A2
:080DB000E0F70895F894FFCF6D
:100DB8000100000000000014000000000000000016
:100DC800000000000000000000000000000000001B
:100DD800000000000000000000000000000000000B
:100DE80000010507205F050000000000C6186380A9
:100DF800014A290000004A7DF59502C417471F01E2
:100E080063222232062615519305860800000088C1
:100E180008210802822084880080545709008090A5
:100E28004F0800000060880000800F0000000000EC
:100E38008C0100222202002EE63AA303C410428845
:100E4800032E4244C4072E4207A30388A9F41102C3
:100E58003F8407A3032E8617A3033F424408012EAD
:100E68004617A3032E460FA303C018600C00C01832
:100E78006088008888200802007CF00100822088B1
:100E880088002E424400012E425BAB0344C51F6319
:100E9800042FC617E3032E8610A2032FC618E303F8
:100EA8003F8417C2073F841742002E861EA30731CE
:100EB800C61F63048E10428803104218A30331959D
:100EC800515204218410C20771D71A630471D61CC9
:100ED80063042EC618A3032FC61742002EC65893C4
:100EE800052FC61763042E0607A3039F10420801A7
:100EF80031C618A30331C618150131C65AAB0231E1
:100F08002AA26204312A4208011F2222C20727842A
:100F180010C20120088220000E218490034445005D
:100F28000000000000C00782200000000038E8A38D
:100F38000721B419E30300B810A20310DA1CA307B1
:100F480000B8F883034C8A238400C0C7E8A10321B2
:100F5800B41963040418428803083084920121A458
:100F6800324A02861042880300AC5A630400B4195E
:100F7800630400B818A30300BCF8420000D8EC21B1
:100F88000400B419420000B8E0E003421C21240325
:100F980000C418B30500C418150100C45AAB0200F8
:100FA8004445540400C4E8A103007C44C4078810E5
:100FB8004108028410420801821044880000888A8F
:100FC8000000000306080A00400020001000080086
:100FD8000400020001034000800310038003200383
:0A0FE8008003400320008003100086
:00000001FF
