:100000000C943A000C944C000C944C000C944C0052
:100010000C944C000C944C000C944C000C944C0030
:100020000C944C000C944C000C944C000C944C0020
:100030000C944C000C944C000C944C000C944C0010
:100040000C944C000C944C000C944C000C944C0000
:100050000C944C000C944C000C944C000C944C00F0
:100060000C944C000C944C000C944C000C944C00E0
:100070000C944C0011241FBECFEFD4E0DEBFCDBFE7
:1000800011E0A0E0B1E001C01D92A230B107E1F79C
:100090000E94AE000C94C0000C94000021E030E0FF
:1000A000019711F420E030E0C9010895811105C0E5
:1000B000662311F0429A0895429808953A9A429A16
:1000C0000895E1E6F0E080E880831082A89584B787
:1000D000877F84BFE0E6F0E08081886180831082C2
:1000E000089581110DC080910001882329F090911D
:1000F000010181E0892702C080E090E081700895CD
:1001000080E0089581110BC080910001811103C02E
:100110008091010102C080E090E08170089580E04C
:100120000895811103C080910001089580E0089531
:10013000811105C09091000181E08927089580E038
:100140000895E0E0F1E08081818389B1881F8827EC
:10015000881F8083089557985F9808950E946100D2
:100160000E945E000E94AB000E94A10080E00E94FD
:1001700091008823C9F361E080E00E945600F4CF2B
:04018000F894FFCF21
:00000001FF
