:100000000C943A000C9457000C9457000C94570031
:100010000C9457000C9457000C9457000C94570004
:100020000C9457000C9457000C9457000C945700F4
:100030000C9457000C9457000C9457000C945700E4
:100040000C9457000C9457000C9457000C945700D4
:100050000C9457000C9457000C9457000C945700C4
:100060000C9457000C9457000C9457000C945700B4
:100070000C94570011241FBECFEFD4E0DEBFCDBFDC
:1000800011E0A0E0B1E0ECE3FAE002C005900D92CF
:10009000A435B107D9F711E0A4E5B1E001C01D9284
:1000A000A136B107E1F70E9430040C941C050C94B2
:1000B0000000E1E6F0E080E880831082A89584B734
:1000C000877F84BFE0E6F0E08081886180831082D2
:1000D00008951092800084E0809381001092850042
:1000E0001092840008958091840090918500089575
:1000F000AC0180918400909185009C01241B350BFC
:10010000283E3340B0F70895209184003091850057
:10011000820F931F0C9478008530A0F4673090F420
:1001200021E030E0062E01C0220F0A94EAF7E82F02
:10013000F0E0EB5AFE4F922F909580818923411178
:10014000822B80830895853088F4673078F4E82F17
:10015000F0E0EB5AFE4F81E090E0062E01C0880FE0
:100160000A94EAF79081982381E009F480E00895E9
:1001700060915401E62FF0E0EB5AFE4F80810E941F
:100180001101809154018F5F853018F480935401E0
:100190000895109254010895E5E5F1E0108211826E
:1001A00012821382148208950E94EF000C94CC00F6
:1001B000811105C0662311F0429A0895429808956E
:1001C0003A9A429A08959C01FC01FF2784A1832B4F
:1001D00084A395A1892F832B85A381E00895CF93D4
:1001E000DF93C5E4D1E0899199910E94E30081E019
:1001F000C335D807C1F783E090E40E94E30080E0B4
:1002000090E80E94E30083E090E10E94E30083E035
:1002100090E80E94E30083E090E2DF91CF910C949C
:10022000E300E0915A01F0E0EE0FFF1FE55CFE4FA6
:1002300020813181F901FF2795A1932B95A3E5E456
:10024000F1E097E020813181D901BB2795962C916F
:10025000959780FF03C03095232301C0232B9596EB
:100260002C938695915032969111ECCFE62FF0E0C9
:10027000EE0FFF1FE55CFE4F80819181FC01FF279F
:1002800085A19095892385A360935A0108950097CD
:1002900089F0FC012381621B67FD09C0772767FD98
:1002A0007095248130E081E0621773070CF080E0E4
:1002B0008170089580E00895CF93DF93FC01A62F0D
:1002C000822F309771F16181461758F59281291775
:1002D00040F59381A91BA7FD24C0BB27A7FDB095BE
:1002E000C481D0E0AC17BD07E4F40E949E04480F1F
:1002F000658170E0CD010E94A7040696242F269503
:1003000026952695E80FF91FE20FF11D9081892FA0
:1003100090E0477002C0959587954A95E2F7817005
:1003200001C080E0DF91CF910895CF93DF93EC017E
:100330000E9469009E0140E050E062E17AE780E0BF
:1003400090E00E94CC0430935E0120935D01DF9128
:10035000CF91089580915B0190915C010E9478009B
:1003600020915B0130915C0180915D0190915E0173
:10037000820F931F90935C0180935B01089541E08D
:10038000611101C040E0692F0C948C00692F0C941E
:10039000A30041E0611101C040E0692F0C948C0082
:1003A0004F925F926F927F928F929F92AF92BF9285
:1003B000CF92DF92EF92FF920F931F93CF93DF9331
:1003C0001F92CDB7DEB7862E942E5C01E62EF72E57
:1003D000262F332727FD3095281B310987FD3395BC
:1003E000072F112707FD1095091B110997FD13957C
:1003F00037FF03C077247A9402C07724739417FFE1
:1004000003C066246A9402C066246394290137FFFE
:1004100003C051944194510817FF03C011950195F1
:10042000110940165106A4F06201D594C794F92E23
:10043000A81421F1692D8A2D9F2D0E94C901C01A8F
:10044000D10AD7FE03C0C40CD51CF60CA70CF0CF04
:100450006801D594C794E82EB71681F0692D8E2DCA
:100460009B2D79830E94C901C418D5087981D7FED4
:1004700003C0C00ED11EE70CB60CEECF692DC7012C
:100480000F90DF91CF911F910F91FF90EF90DF9030
:10049000CF90BF90AF909F908F907F906F905F9024
:1004A0004F900C94C901FF920F931F93CF93DF934A
:1004B000D82FF92E162FC72F042F792F0E94D00185
:1004C000402F6D2F7C2F8D2F9F2D0E94D001402F0C
:1004D000612F7C2F812F9F2D0E94D001402F612FF3
:1004E0007C2F8D2F9C2F0E94D001DF91CF911F91E7
:1004F0000F91FF9008950E94CC00E0E0F1E0118A96
:1005000014860895DF92EF92FF920F931F93CF937B
:10051000DF93D82E7B01162F0F2D80910201909131
:100520000301C0E00197A1F50F2D0C1BE09108011C
:10053000F09109018181C817C0F4D0E080910801D1
:1005400090910901FC012281D21768F42D2F4C2FC4
:100550006D2D0E945C01682F8D2F8E0D902F0E94B3
:10056000C901DF5FEBCFCF5FDFCFC0E0E0910801D3
:10057000F09109018281C81740F460E08C2F8E0D44
:10058000902F0E94C901CF5FF1CF015031C0CF5FE2
:100590001C2F1E0DE0910801F09109018181C817FF
:1005A000B0F4D0E08091080190910901FC01228112
:1005B000D21768F72D2F4C2F6D2D0E945C01682FEC
:1005C000812F9D2F9F0D0E94C901DF5FEBCFC0E0FF
:1005D000E0910801F09109018281C81740F460E0C0
:1005E000812F9C2F9F0D0E94C901CF5FF1CF1F5F0C
:1005F000812F902FDF91CF911F910F91FF90EF905E
:10060000DF9008951F93CF93DF93182FEC018C2F69
:10061000811B9991992351F0892F0E948202BC017C
:100620008C2F811B653014F477FFF1CFDF91CF91D0
:100630001F9108950F931F93CF93DF93EC019B01BC
:1006400010920C0140930D011092100100910801CD
:10065000109109010115110509F449C0F8018181C2
:10066000609106017091070190E00E94A704BC010F
:1006700080910A0190910B010E94B804CB016AE0BD
:1006800070E00E94A70490930F0180930E013093B5
:1006900005012093040140E250E0BE0181E191E0B8
:1006A0000E940D0580910001909101010197F9F4DC
:1006B000FE0101900020E9F7CF010197F801918137
:1006C000692F70E06F5F7F4F8C1B0E949E048150EA
:1006D00020910201309103012130310511F095E0A4
:1006E00001C097E0981718F48EEF80931001DF9106
:1006F000CF911F910F910895209102013091030134
:100700002130310511F070E001C076E04FEF60E07C
:100710000E941A03089590E09093070180930601C8
:10072000089590930101809300010895909303012F
:100730008093020108959093090180930801089520
:1007400080915F0190916001019690936001809388
:100750005F0120910E0130910F018217930708F479
:100760006DC01092600110925F01E0910C01F0E009
:10077000E050FF4F818981110AC080910D018230C4
:1007800008F45CC0815080930D0110920C0180919F
:100790000C0190E0FC01E050FF4F2189222309F475
:1007A0004DC020910001309101012115310521F04A
:1007B00021303105A9F02AC020911001211126C055
:1007C00060910401709105018F5E9E4F0E940203AB
:1007D00090E0019790910C01890F80930C0116C055
:1007E0006091040170910501209102013091030193
:1007F0002130310521F420911001720F03C02091A6
:100800001001621B8F5E9E4F0E94020380911001B7
:100810008F5F80931001992787FD9095E0910801E3
:10082000F0910901218130E0281739073CF410923A
:10083000100180910C018F5F80930C010C94B80023
:10084000CF93DF93C0E0D1E09B878A870E94D400DA
:1008500084E190E09F838E83DF91CF910C947B02A3
:10086000CF93DF93CDB7DEB72A970FB6F894DEBFEC
:100870000FBECDBF8AE0E1E3F1E0DE011196019009
:100880000D928A95E1F70E94590088E893E10E9451
:1008900020040E94E00088E893E10E949501D12C99
:1008A000E12CF12C00E010E0C12C0E94AA010E9472
:1008B000A003EC103EC0E11002C065E0E62EEA9411
:1008C0000F5F1F4F083E83E0180740F0DD2011F056
:1008D000DA9402C059E0D52E00E010E0E1E0F0E04B
:1008E000EC0FFD1FED0DF11D208130E08F2D90E00C
:1008F000880F991F880F991F992493948217930743
:100900000CF0912CA12CB12C692DC5010E94C901BC
:10091000B39487E0B812F8CFA39485E0A812F3CF80
:10092000692D80E00E94D800F39488E18F1508F4C7
:10093000F12CC39485E0C812B8CFB6CF002480FD57
:10094000060E660F11F08695D1F7802D08950024CC
:10095000552704C0080E591F880F991F009729F0CA
:1009600076956795B8F37105B9F7802D952F0895A1
:10097000AA1BBB1B51E107C0AA1FBB1FA617B707C5
:1009800010F0A61BB70B881F991F5A95A9F78095E1
:100990009095BC01CD010895052E97FB1EF400949F
:1009A0000E94E30457FD07D00E94EB0407FC03D02C
:1009B0004EF40C94E30450954095309521953F4FAB
:1009C0004F4F5F4F089590958095709561957F4F3B
:1009D0008F4F9F4F0895A1E21A2EAA1BBB1BFD014A
:1009E0000DC0AA1FBB1FEE1FFF1FA217B307E4070E
:1009F000F50720F0A21BB30BE40BF50B661F771F66
:100A0000881F991F1A9469F7609570958095909545
:100A10009B01AC01BD01CF010895FB01DC014150F8
:100A2000504048F001900D920020C9F701C01D927E
:0C0A300041505040E0F70895F894FFCFCB
:100A3C000000000000001400000000000000000096
:100A4C00000000000000000000000000000000009A
:100A5C00000000000000000000000000000000008A
:100A6C000004081020406440201004034000800360
:100A7C001003800320004000200010000800040038
:040A8C000200010063
:00000001FF
