:100000000C944C000C9469000C9469000C946900E9
:100010000C9469000C9469000C9469000C946900BC
:100020000C9469000C9469000C9469000C946900AC
:100030000C9469000C9469000C9469000C9469009C
:100040000C9469000C9469000C9469000C9469008C
:100050000C9469000C9469000C9469000C9469007C
:100060000C9469000C9469000C9469000C9469006C
:100070000C9469000C9469000C9469000C9469005C
:100080000C9469000C9469000C9469000C9469004C
:100090000C9469000C94690011241FBECFEFD4E0CA
:1000A000DEBFCDBF12E0A0E0B1E0EAE7F2E102C0BE
:1000B00005900D92A63BB107D9F712E0A6EBB2E08E
:1000C00001C01D92AD3CB107E1F70E9408030C94FA
:1000D0003B090C94000080E00E94C903882399F436
:1000E00081E00E94C903882371F482E00E94C90361
:1000F000882349F483E00E94C903882331F484E013
:100100000E94C903089581E0089581E0089504C024
:100110000E9473030E94D1060E94F9030E946B00A3
:100120008823B1F308954F925F926F927F928F92DE
:100130009F92AF92BF92CF92DF92EF92FF920F9376
:100140001F93DF93CF93CDB7DEB7E2970FB6F89446
:10015000DEBF0FBECDBF4C01DE01119682E3FD0173
:1001600011928A95E9F7E0E1F2E08AE001900D92C0
:100170008150E1F7DE011B96E0E2F2E08AE00190B7
:100180000D928150E1F7DE015596E3E3F2E08AE05B
:1001900001900D928150E1F7DE015F96E4E4F2E018
:1001A0008AE001900D928150E1F7DE019996E4E535
:1001B000F2E08AE001900D928150E1F7BB24AA247D
:1001C0003E010894611C711C95E0492E512C0B2DA9
:1001D00010E0EA2CFF24C8016AE070E00E941008D9
:1001E0006301C80ED91EF601EE0DFF1D85816A2D33
:1001F0000E94AC04C7010196B2010E943608A82EE5
:100200000E94F90380E00E94C903882329F481E059
:100210000E94C903882329F004301105BCF4B3946B
:1002200016C082E00E94C903882329F483E00E945B
:10023000C903882389F00115110529F0063011053D
:100240002CF4BA9404C084E0B82E01C0BB240E94F0
:10025000A4050E94D106BBCF84E00E94C903882375
:1002600009F4B5CF0E94A4050E94D106882D992DCE
:10027000DC01F6018AE001900D928150E1F7C401A2
:10028000E2960FB6F894DEBF0FBECDBFCF91DF91DF
:100290001F910F91FF90EF90DF90CF90BF90AF90A4
:1002A0009F908F907F906F905F904F9008950F93E5
:1002B0001F938C016623A9F40E94CC0865E070E0CE
:1002C0000E943608823019F1833030F4882349F0D7
:1002D000813009F03DC010C0833021F18430C1F578
:1002E0002CC0802F912FDC01E0E1F2E08AE0019048
:1002F0000D928150E1F736C0802F912FDC01E0E2B2
:10030000F2E08AE001900D928150E1F72BC0802F3E
:10031000912FDC01E3E3F2E08AE001900D9281503D
:10032000E1F720C0202F312FD901E4E4F2E08AE088
:1003300001900D928150E1F715C0202F312FD90186
:10034000E4E5F2E08AE001900D928150E1F70AC005
:10035000202F312FD901E0E1F2E08AE001900D92E7
:100360008150E1F7C8011F910F9108950F931F93DA
:10037000DF93CF93CDB7DEB72A970FB6F894DEBFE1
:100380000FBECDBF4D838B89831751F0841741F089
:100390008C89281739F08D89281721F080E003C057
:1003A00081E001C08FEF2A960FB6F894DEBF0FBE32
:1003B000CDBFCF91DF911F910F910895882339F020
:1003C000813041F08F3F51F480E091E005C088E03A
:1003D00091E002C080E191E00E94AE060E94870099
:1003E0000895BF92CF92DF92EF92FF920F931F93E7
:1003F000DF93CF93CDB7DEB72A970FB6F894DEBF61
:100400000FBECDBF09831A832B833C834D835E834C
:100410006F83788789879A8787E191E00E94AE068B
:100420000E9487000E94F903BB248E010A5F1F4FC0
:1004300025E0C22ED12C11C0EB2CFF24F801EE0DCB
:10044000FF1D80816B2D0E94AC04C7010196B6018F
:100450000E943608B82E0E94F9030E946B00882380
:1004600059F30E94A4050E94D1062A960FB6F8946B
:10047000DEBF0FBECDBFCF91DF911F910F91FF90D7
:10048000EF90DF90CF90BF9008950F931F938CE271
:1004900091E00E94AE0610E00E9473030E94F903EF
:1004A00080E00E94C903882329F481E00E94C903E7
:1004B000882341F0112319F18AE391E00E94AE06EE
:1004C00010E01DC082E00E94C903882329F483E064
:1004D0000E94C903882341F0112389F48AE491E042
:1004E0000E94AE0611E00BC084E00E94C90388237D
:1004F00031F00E94A4050E94D10601E001C000E095
:100500000E94D106002341F2812F1F910F9108957F
:100510008F929F92AF92BF92CF92DF92EF92FF9213
:100520000F931F93DF93CF93CDB7DEB764970FB6CA
:10053000F894DEBF0FBECDBF87E591E00E94AE0606
:100540000E9487000E944502C82EFF24DD245E0120
:100550000894A11CB11C3BE0832E912C8C0E9D1E97
:10056000C5010E949300EB800C811D81C4016C2D9C
:100570000E9457018D852E859F85801749F0811730
:1005800039F0E21609F440C0E916F1F1EE2403C097
:10059000F394EE24E3940B851C852D853E854F85D1
:1005A000588969897A898B899C890E94F1018E2DED
:1005B0000E94DE018F2D833020F48D2D833080F258
:1005C00006C08F2D833019F488E791E002C083E8DC
:1005D00091E00E94AE060E9487000E94A4050E943E
:1005E000D10664960FB6F894DEBF0FBECDBFCF9193
:1005F000DF911F910F91FF90EF90DF90CF90BF9010
:10060000AF909F908F900895DA94EE24EA94C3CF30
:100610000E9428030E9493040E947A0488EE93E0CB
:100620000E945E0388EE93E00E9453078FE891E0FA
:100630000E94CC0681E090E00E94C20681E090E03A
:100640000E94C7068EE10E94BD060E948802FDCF6F
:10065000E1E6F0E080E880831082A89584B7877F88
:1006600084BFE0E6F0E08081886180831082089595
:100670001092800084E08093810010928500109297
:10068000840008952091840030918500C901089567
:100690002091840030918500A901481B590B63E02B
:1006A000483E5607A8F7C90108952091840030916B
:1006B0008500820F931F0E9448030895CF93DF9314
:1006C000EC010E9438039E0140E050E062E17AE7CD
:1006D00080E090E00E9449083093B7022093B60270
:1006E000DF91CF9108958091B8029091B9020E9454
:1006F00048038091B8029091B9022091B6023091DE
:10070000B702820F931F9093B9028093B8020895A5
:10071000882329F4662311F0429A08954298089597
:100720003A9A429A08956230710529F16330710551
:1007300020F46130710559F515C06330710521F061
:100740006430710521F509C0FC01F07024A1892FE6
:10075000292B24A395A180950CC0FC01F07024A145
:10076000292B0FC0FC01F07024A19095292324A30C
:1007700085A1892309C0FC01F07024A1892F8095EF
:10078000282324A385A1892B85A381E0089580E0F7
:100790000895E82FF0E0EE0FFF1FE654FD4F808133
:1007A000882321F0818191E08927089580E090E0FD
:1007B0000895E82FF0E0EE0FFF1FE654FD4F808113
:1007C000882311F48181089580E090E00895E82F56
:1007D000F0E0EE0FFF1FE654FD4F80810895E82FF3
:1007E000F0E0EE0FFF1FE654FD4F908181E0892776
:1007F00008956F927F929F92AF92BF92CF92DF92B5
:10080000EF92FF920F931F93DF93CF9300D0CDB75A
:10081000DEB7EAEB6E2EE2E07E2E7EE5A72E72E0DA
:10082000B72E66E0962EF30180818183F501019158
:1008300011915F015FEFE52EF12CE022F122F7012B
:1008400084A1C12EDD2425A130E02C213D2141E0F1
:100850002115310509F440E090E08C219D2100979D
:1008600029F0442341F024E030E00AC0442331F071
:1008700022E030E005C023E030E002C021E030E0BB
:10088000C80164E070E029833A830E949303C801A1
:1008900062E070E00E949303892D8A95F1F7F701D9
:1008A00083A190E08C219D2141E029813A8100972C
:1008B00009F040E0F3014083C801B9010E949303AD
:1008C00082E090E0680E791E94EC691692E0790659
:1008D00009F0A9CF0F900F90CF91DF911F910F9149
:1008E000FF90EF90DF90CF90BF90AF909F907F9060
:1008F0006F9008950895FC01F07025A1292B25A380
:100900000895FC01F07025A1892F8095822385A38D
:100910000895FC01F07024A1292B24A385A1892B23
:1009200085A381E00895CF93DF93C2E7D2E0899158
:1009300099910E94890482E0C038D807C1F7C8E6BF
:10094000D2E0899199910E94890482E0C237D80748
:10095000C1F7DF91CF9108950F931F93CF93DF934A
:10096000182F062FE091C402F0E0EE0FFF1FE859A8
:10097000FD4F808191810E947B04C2E7D2E0888193
:10098000998110FF03C00E94810402C00E947B0471
:10099000229682E0C038D80711F01695F0CFE02FEC
:1009A000F0E0EE0FFF1FE859FD4F808191810E941A
:1009B00081040093C402DF91CF911F910F9108959C
:1009C00041E0662309F440E0692F0E946207089520
:1009D000692F0E947C07089541E0662309F440E0F6
:1009E000692F0E94620708954F925F926F927F92E3
:1009F0008F929F92AF92BF92CF92DF92EF92FF922F
:100A00000F931F93DF93CF930F92CDB7DEB7862E50
:100A1000942E062F112707FD1095282F332727FD29
:100A20003095021B130B472E552447FC5094292F59
:100A3000332727FD3095421A530A17FD04C051E0B1
:100A4000652E712C03C066246A94762C57FC04C072
:100A500041E0C42ED12C03C0CC24CA94DC2C17FF57
:100A600003C0109501951F4F57FE04C05094419448
:100A70005108539404151505A4F07801F594E794F2
:100A80005C010CC0C501692D0E94EC04E418F50856
:100A9000F7FE03C0E00EF11EBC0CA60CA81491F7E3
:100AA00015C07201F594E7945C010EC0C501692D73
:100AB00079830E94EC04E01AF10A7981F7FE03C001
:100AC000E40CF51CA60CBC0CB71681F7C501692D0A
:100AD0000E94EC040F90CF91DF911F910F91FF9036
:100AE000EF90DF90CF90BF90AF909F908F907F90CE
:100AF0006F905F904F900895DF92EF92FF920F9367
:100B00001F93E82ED92EF62E072F142F7D2D0E942D
:100B1000F4048E2D9D2D6E2D702F412F0E94F40414
:100B20008F2D9D2D6F2D702F412F0E94F4048E2D3F
:100B3000902F6F2D702F412F0E94F4041F910F9161
:100B4000FF90EF90DF9008950E94A6071092910207
:100B500010928C020895BF92CF92DF92EF92FF9293
:100B60000F931F93182FE62E072FD62EF72E2091C6
:100B70008202309183022130310511F0CC244CC027
:100B8000CC2417C0BF2CBE0CCF01612F4C2D2F2DB4
:100B90000E94CC07682F8B2D902F0E94EC04F394B9
:100BA000E0918802F09189028281F81658F3C3948B
:100BB0000150E0918802F09189028181C81610F4F9
:100BC000FF24EECF10E007C0812F8E0D902F60E044
:100BD0000E94EC041F5FE0918802F09189028281FB
:100BE000181790F3F02EFA9432C0BD2CB00ECF013E
:100BF000612F4C2D2D2D0E94CC07682F8E2D9B2D03
:100C00000E94EC04D394E0918802F09189028281E1
:100C1000D81658F3C394E394E0918802F0918902C6
:100C20008181C81610F4DD24EECF10E007C08E2DB0
:100C3000912F900F60E00E94EC041F5FE09188020A
:100C4000F09189028281181790F3DE2CD3948D2DB8
:100C50009F2D1F910F91FF90EF90DF90CF90BF904D
:100C60000895EF92FF921F93CF93DF93E82EE70151
:100C70007E01F92EE70110E008C00E94AB05BC011F
:100C80001F5F85302CF477FD03C089918823A9F775
:100C9000812FDF91CF911F91FF90EF9008950F93D7
:100CA0001F93CF93DF938C019B0110928C02409392
:100CB0008D0210929002C0918802D09189022097F3
:100CC00009F447C06091860270918702898190E0A3
:100CD0000E941008BC0180918A0290918B020E94B0
:100CE0002208CB016AE070E00E94100890938F0206
:100CF00080938E02309385022093840281E992E0F2
:100D0000B80140E250E00E94DC088091800290919E
:100D1000810281309105E9F4D8010D900020E9F7B6
:100D2000CD010197698170E06F5F7F4F801B0E944A
:100D300007088150209182023091830221303105D1
:100D400011F497E001C095E0981718F48EEF8093A6
:100D50009002DF91CF911F910F910895209182020F
:100D6000309183022130310511F476E001C070E04A
:100D700060E04FEF0E944F06089580938602109224
:100D80008702089590938102809380020895909342
:100D9000830280938202089590938902809388024F
:100DA00008951F938091C5029091C6020196909379
:100DB000C6028093C50220918E0230918F02821765
:100DC000930708F46CC01092C6021092C502E0911D
:100DD0008C02F0E0E058FD4F8189882359F480911E
:100DE0008D02823008F45BC08150E0E8F2E0858734
:100DF00010928C0210918C02812F90E0FC01E0583F
:100E0000FD4F2189222309F44AC0209180023091AC
:100E100081022115310521F02130310541F511C044
:100E200020919002222319F560918402709185022D
:100E30008F569D4F0E9431061150180F10938C024F
:100E400016C06091840270918502209182023091D7
:100E50008302809190022130310511F4780F01C096
:100E6000681B812F90E08F569D4F0E943106209184
:100E700090022F5F20939002332727FD3095E09159
:100E80008802F0918902818190E0821793073CF4F7
:100E90001092900280918C028F5F80938C020E944E
:100EA00093071F91089590938B0280938A020E946A
:100EB000B10784E190E090938702809386020E94BC
:100EC000A40508958530B8F46730A8F421E030E037
:100ED00002C0220F331F6A95E2F790E0322F30955F
:100EE000FC01E953FD4F508135234111322B8953C9
:100EF0009D4FFC0130830895853088F4673088F475
:100F000021E030E002C0220F331F6A95E2F7E82F9C
:100F1000F0E0E953FD4F9081922381E019F480E0E5
:100F2000089580E008956091CC02E62FF0E0E95347
:100F3000FD4F80810E94AC048091CC028F5F809332
:100F4000CC02853010F01092CC0208951092C702A6
:100F50001092C8021092C9021092CA021092CB02DB
:100F600008950E9493040E94A6070895FC0100972B
:100F700089F08381681B67FD0AC0772767FD70953C
:100F8000248130E081E090E06217730724F080E074
:100F900090E0089580E00895CF93DF93FC01A62FA1
:100FA000822F309781F16181461768F59281291768
:100FB00050F59381A91BA7FD26C0BB27A7FDB095BF
:100FC0009481C92FD0E0AC17BD07ECF40E9407084C
:100FD000480F6581CD0170E00E941008DC01169673
:100FE000842F869586958695AE0FBF1FA80FB11DDD
:100FF0002C9130E0477002C0359527954A95E2F76D
:10100000822F817001C080E0DF91CF91089500248C
:1010100080FD060E660F11F08695D1F7802D08959C
:101020005527002480FF02C0060E571F660F771F4A
:101030006115710521F096958795009799F7952F81
:10104000802D0895AA1BBB1B51E107C0AA1FBB1F1F
:10105000A617B70710F0A61BB70B881F991F5A9544
:10106000A9F780959095BC01CD01089597FB092EB5
:1010700007260AD077FD04D0E5DF06D000201AF459
:10108000709561957F4F0895F6F7909581959F4FE4
:10109000089597FB092E05260ED057FD04D014D0D5
:1010A0000AD0001C38F450954095309521953F4F5B
:1010B0004F4F5F4F0895F6F7909580957095619525
:1010C0007F4F8F4F9F4F0895A1E21A2EAA1BBB1B83
:1010D000FD010DC0AA1FBB1FEE1FFF1FA217B30704
:1010E000E407F50720F0A21BB30BE40BF50B661F1A
:1010F000771F881F991F1A9469F7609570958095DE
:1011000090959B01AC01BD01CF010895A0E0B0E036
:10111000ECE8F8E00C940C09EC01688179818A8193
:101120009B81611571058105910521F464E279EDDA
:101130008BE597E02DE133EF41E050E00E94490854
:1011400079018A0127EA31E440E050E00E94EB088F
:101150005B016C01C801B7012CEE34EF4FEF5FEF7C
:101160000E94EB089B01AC012A0D3B1D4C1D5D1D2F
:1011700057FF04C0215030404040504828833983F5
:101180004A835B833F77C901CDB7DEB7EAE00C94B1
:1011900028090E948608089581EB92E00E94860843
:1011A0000895A0E0B0E08093B1029093B202A093C2
:1011B000B302B093B4020895FB01DC0141505040EA
:1011C00048F001900D920020C9F701C01D924150D6
:1011D0005040E0F70895FF27EE27BB27AA2760FFBE
:1011E00004C0A20FB31FE41FF51F220F331F441FBB
:1011F000551F969587957795679589F70097760798
:1012000071F7CF01BD0108952F923F924F925F92E7
:101210006F927F928F929F92AF92BF92CF92DF9206
:10122000EF92FF920F931F93CF93DF93CDB7DEB76B
:10123000CA1BDB0B0FB6F894DEBF0FBECDBF0994FF
:101240002A88398848885F846E847D848C849B8456
:10125000AA84B984C884DF80EE80FD800C811B8164
:10126000AA81B981CE0FD11D0FB6F894DEBF0FBE93
:0A127000CDBFED010895F894FFCF03
:10127A0020204C4F53452100202044524157210041
:10128A00202057494E21004F50504F4E454E54533F
:10129A002043484F4943452E2E2E000053494E47BE
:1012AA004C4520504C4159455200202053494E4745
:1012BA004C4520504C4159455200202054574F204C
:1012CA00504C4159455200524F434B2050415045D2
:1012DA00522053434953534F5253204C495A415277
:1012EA00442053504F434B002020594F5520574913
:1012FA004E21002020594F55204C4F5345210001C3
:10130A000305203B0200009220EB737D5FDE3DA5C2
:10131A0052EA7A14004A222229BA2ED0050014C0B1
:10132A00010020A4126A2B9A74A372A338ED498F84
:10133A0038CE2AA712AA2AAE4910041014544438E7
:10134A000E11152A250000EA5BEB3A4F726B3BCF70
:10135A0073CF134F7AED5B9774247B5D564972FD08
:10136A005B6F5B6F7BEF136F7FEF57CE3897246D00
:10137A007B6D2BED5FAD5AAD24A772524F434B00E4
:10138A000B02414344183C3E7F3E504150455200B7
:10139A001A024241457E4547417F53434953534FC1
:1013AA005253002A0243424467351A35674C495A58
:1013BA00415244003D02444245365D7F413E53500E
:1013CA004F434B004E024541433B4654463B038044
:1013DA0003400320008003100340008003100380B1
:1013EA000320004000200010000800040002000151
:1013FA0000000000000014000000000000000000CF
:10140A0000000000000000000000000000000000D2
:10141A0000000000000000000000000000000000C2
:06142A00000100000000BB
:00000001FF
