:100000000C943A000C944F000C944F000C944F0049
:100010000C944F000C944F000C944F000C944F0024
:100020000C944F000C944F000C944F000C944F0014
:100030000C944F000C944F000C944F000C944F0004
:100040000C944F000C944F000C944F000C944F00F4
:100050000C944F000C944F000C944F000C944F00E4
:100060000C944F000C944F000C944F000C944F00D4
:100070000C944F0011241FBECFEFD4E0DEBFCDBFE4
:1000800011E0A0E0B1E0E8E1F2E002C005900D92DD
:10009000AE35B107D9F70E94ED000C940A010C941B
:1000A00000009C01FC01FF2784A1832B84A395A160
:1000B000892F832B85A381E00895CF93DF93E6E416
:1000C000F1E081919191DC01BB2795968C919597F8
:1000D000892B95968C93A0E5B1E08D919D91EC01D3
:1000E000DD278DA1892B8DA381E0AE35B807A9F757
:1000F00081E0E035F80729F7DF91CF910895EF927D
:10010000FF920F931F93CF93DF9306E411E0EC016E
:100110007C0186E4E80EF11C0E945D00F8018191EB
:1001200091918F01FC01FF2785A19095892385A3DB
:10013000E0E5F1E09E01225F3F4F8991999101979F
:1001400059F480819181DC01BB2795968C9195971C
:100150009095892395968C933296C217D30769F7A9
:10016000CE15DF05C9F6DF91CF911F910F91FF905A
:10017000EF900895CF93DF9383E090E40E945100C5
:1001800080E090E80E94510083E090E10E945100DD
:1001900083E090E80E94510083E090E20E945100C9
:1001A000C0E5D1E0899199910E94510081E0CE355E
:1001B000D807C1F7DF91CF910895E1E6F0E080E83C
:1001C00080831082A89584B7877F84BFE0E6F0E043
:1001D00080818861808310820895CF93DF93CDB7AB
:1001E000DEB7C654D1090FB6F894DEBF0FBECDBF3F
:1001F0000E94DD000E94BA0086E4E0E0F1E0DE014A
:10020000119601900D928A95E1F7CE0101960E9418
:080210007F00FBCFF894FFCF43
:1002180001000000000001000100000000000100D2
:1002280001000000000001000100000001000000C2
:1002380000000000000000000000000000000000B6
:1002480000000000000000000100010001000100A2
:10025800000000000000034000800310038003201A
:0E026800004000200010000800040002000109
:00000001FF
