:100000000C944C000C9469000C9469000C946900E9
:100010000C9469000C9469000C9469000C946900BC
:100020000C9469000C9469000C9469000C946900AC
:100030000C9469000C9469000C9469000C9469009C
:100040000C9469000C9469000C9469000C9469008C
:100050000C9469000C9469000C9469000C9469007C
:100060000C9469000C9469000C9469000C9469006C
:100070000C9469000C9469000C9469000C9469005C
:100080000C9469000C9469000C9469000C9469004C
:100090000C9469000C94690011241FBECFEFD4E0CA
:1000A000DEBFCDBF11E0A0E0B1E0E0E8FDE002C0BE
:1000B00005900D92AA35B107D9F711E0AAE5B1E094
:1000C00001C01D92A736B107E1F70E946B000C94A6
:1000D000BE060C9400002F923F924F925F926F9257
:1000E0007F928F929F92AF92BF92CF92DF92EF92C8
:1000F000FF920F931F93DF93CF93CDB7DEB7E097B7
:100100000FB6F894DEBF0FBECDBFFE013D9683E271
:10011000DF011D928A95E9F7DE011196E0E0F1E03A
:100120008CE001900D928150E1F70E949E0188E8D9
:1001300093E10E947B0588E893E10E94DE025AE089
:10014000C52E47E0842E912C35E0632E712C7E0164
:100150000894E11CF11C2CE0422E512C0E944F0609
:100160008C010E944F06B4010E94B905B82EC80147
:10017000B3010E94B905082F10E08B2D90E065E0D7
:1001800070E00E949305F701E80FF91FE00FF11FDF
:100190008485882319F70E944F069C018B2D90E0DF
:1001A00065E070E00E949305F701E80FF91FE00F8A
:1001B000F11FC901B2010E94B9058487CA9471F682
:1001C000BB24EE24FF249DE0892E912C8C0E9D1ED5
:1001D00083E0282E312C3E010894611C711C01C063
:1001E000BB240E94F3020E94F9040E94F3020E94C1
:1001F000F9040E94F3020E94F9040E94F3020E9493
:10020000F9040E94F3020E94F9040894E11CF11C15
:10021000B8ECEB16F10408F466C05DC0F70180810C
:10022000882309F444C081508083882309F03FC0AB
:100230000E944F062C010E944F06B1010E94B90591
:10024000282F2150C201B1010E94B9058150E82F29
:10025000FF27E7FDF095E00FF11FE530F10540F7CE
:10026000332727FD30952C0D3D1D37FDE1CF27307D
:100270003105F4F6C90165E070E00E949305D301F1
:10028000A80FB91FAE0FBF1F1C968C911C97882317
:1002900079F6C90165E070E00E949305D301A80FCB
:1002A000B91FAE0FBF1FFBE01C96FC931C97089470
:1002B000C11CD11C85E090E0E80EF91E97E0C9163C
:1002C000D10409F0ABCF0F5F1F4F0530110529F4A2
:1002D000EE24FF2408C000E010E07401E00EF11EDF
:1002E000CC24DD249BCF00E010E01CC0D6018C9113
:1002F000F301E80FF11D61E08081B81608F060E0BD
:100300008A2D922F28AB0E94140328A92F5FE5E0C5
:10031000F0E0CE0EDF1E273049F70F5F1F4F05308C
:10032000110531F06401C00ED11E20E0A02EDECFF9
:10033000B394FB2DF93108F053CF53CFE1E6F0E051
:1003400080E880831082A89584B7877F84BFE0E629
:10035000F0E080818861808310820895109280008F
:1003600084E08093810010928500109284000895AB
:100370002091840030918500C90108952091840066
:1003800030918500A901481B590B63E0483E560790
:10039000A8F7C90108952091840030918500820F4B
:1003A000931F0E94BE0108958530B8F46730A8F409
:1003B00021E030E002C0220F331F6A95E2F790E09F
:1003C000322F3095FC01E65AFE4F50813523411102
:1003D000322B865A9E4FFC0130830895853088F475
:1003E000673088F421E030E002C0220F331F6A95A5
:1003F000E2F7E82FF0E0E65AFE4F9081922381E089
:1004000019F480E0089580E0089560915F01E62F7F
:10041000F0E0E65AFE4F80810E94590280915F0110
:100420008F5F80935F01853010F010925F01089517
:1004300010925A0110925B0110925C0110925D01C2
:1004400010925E0108950E9440020E9418020895D1
:10045000FC01F07025A1292B25A30895FC01F07063
:1004600025A1892F8095822385A30895FC01F07032
:1004700024A1292B24A385A1892B85A381E008959C
:10048000CF93DF93C6E1D1E0899199910E94360222
:1004900081E0C432D807C1F7CCE0D1E089919991CD
:1004A0000E94360281E0C631D807C1F7DF91CF91B3
:1004B00008950F931F93CF93DF93182F062FE0918A
:1004C0006001F0E0EE0FFF1FE45FFE4F808191813D
:1004D0000E942802C6E1D1E08881998110FF03C003
:1004E0000E942E0202C00E942802229681E0C4329D
:1004F000D80711F01695F0CFE02FF0E0EE0FFF1FB8
:10050000E45FFE4F808191810E942E020093600182
:10051000DF91CF911F910F910895FC01009789F011
:100520008381681B67FD0AC0772767FD709524816A
:1005300030E081E090E06217730724F080E090E003
:10054000089580E00895CF93DF93FC01A62F822FBA
:10055000309781F16181461768F59281291750F52E
:100560009381A91BA7FD26C0BB27A7FDB095948149
:10057000C92FD0E0AC17BD07ECF40E948A05480FE4
:100580006581CD0170E00E949305DC011696842FF1
:10059000869586958695AE0FBF1FA80FB11D2C912D
:1005A00030E0477002C0359527954A95E2F7822FD3
:1005B000817001C080E0DF91CF910895CF93DF93E8
:1005C000EC010E94AE019E0140E050E062E17AE75A
:1005D00080E090E00E94CC0530936201209361019D
:1005E000DF91CF91089580916301909164010E9401
:1005F000BE0180916301909164012091610130916D
:100600006201820F931F90936401809363010895A8
:1006100041E0662309F440E0692F0E94D401089567
:10062000692F0E94EE01089541E0662309F440E03D
:10063000692F0E94D40108954F925F926F927F922A
:100640008F929F92AF92BF92CF92DF92EF92FF92E2
:100650000F931F93DF93CF930F92CDB7DEB7862E04
:10066000942E062F112707FD1095282F332727FDDD
:100670003095021B130B472E552447FC5094292F0D
:10068000332727FD3095421A530A17FD04C051E065
:10069000652E712C03C066246A94762C57FC04C026
:1006A00041E0C42ED12C03C0CC24CA94DC2C17FF0B
:1006B00003C0109501951F4F57FE04C050944194FC
:1006C0005108539404151505A4F07801F594E794A6
:1006D0005C010CC0C501692D0E941403E418F508E3
:1006E000F7FE03C0E00EF11EBC0CA60CA81491F797
:1006F00015C07201F594E7945C010EC0C501692D27
:1007000079830E941403E01AF10A7981F7FE03C08D
:10071000E40CF51CA60CBC0CB71681F7C501692DBD
:100720000E9414030F90CF91DF911F910F91FF90C2
:10073000EF90DF90CF90BF90AF909F908F907F9081
:100740006F905F904F900895DF92EF92FF920F931A
:100750001F93E82ED92EF62E072F142F7D2D0E94E1
:100760001C038E2D9D2D6E2D702F412F0E941C037A
:100770008F2D9D2D6F2D702F412F0E941C038E2DCC
:10078000902F6F2D702F412F0E941C031F910F91EE
:10079000FF90EF90DF9008950E94180210923501AB
:1007A000109230010895BF92CF92DF92EF92FF92A4
:1007B0000F931F93182FE62E072FD62EF72E20917A
:1007C0002601309127012130310511F0CC244CC095
:1007D000CC2417C0BF2CBE0CCF01612F4C2D2F2D68
:1007E0000E94A302682F8B2D902F0E941403F39474
:1007F000E0912C01F0912D018281F81658F3C394F9
:100800000150E0912C01F0912D018181C81610F466
:10081000FF24EECF10E007C0812F8E0D902F60E0F7
:100820000E9414031F5FE0912C01F0912D01828141
:10083000181790F3F02EFA9432C0BD2CB00ECF01F1
:10084000612F4C2D2D2D0E94A302682F8E2D9B2DE4
:100850000E941403D394E0912C01F0912D01828128
:10086000D81658F3C394E394E0912C01F0912D0134
:100870008181C81610F4DD24EECF10E007C08E2D64
:10088000912F900F60E00E9414031F5FE0912C01F4
:10089000F0912D018281181790F3DE2CD3948D2DC9
:1008A0009F2D1F910F91FF90EF90DF90CF90BF9001
:1008B0000895EF92FF921F93CF93DF93E82EE70105
:1008C0007E01F92EE70110E008C00E94D303BC01AD
:1008D0001F5F85302CF477FD03C089918823A9F729
:1008E000812FDF91CF911F91FF90EF9008950F938B
:1008F0001F93CF93DF938C019B01109230014093A3
:10090000310110923401C0912C01D0912D0120971A
:1009100009F447C060912A0170912B01898190E010
:100920000E949305BC0180912E0190912F010E949D
:10093000A505CB016AE070E00E9493059093330116
:1009400080933201309329012093280185E391E0BF
:10095000B80140E250E00E945F068091240190912E
:10096000250181309105E9F4D8010D900020E9F7C7
:10097000CD010197698170E06F5F7F4F801B0E94FE
:100980008A058150209126013091270121303105BF
:1009900011F497E001C095E0981718F48EEF80935A
:1009A0003401DF91CF911F910F910895209126017D
:1009B000309127012130310511F476E001C070E05B
:1009C00060E04FEF0E947704089580932A0110920F
:1009D0002B0108959093250180932401089590930D
:1009E000270180932601089590932D0180932C0177
:1009F00008951F93809165019091660101969093EF
:100A00006601809365012091320130913301821794
:100A1000930708F46CC01092660110926501E09192
:100A20003001F0E0EC5DFE4F8189882359F480911C
:100A30003101823008F45BC08150E4E2F1E0858747
:100A40001092300110913001812F90E0FC01EC5D9B
:100A5000FE4F2189222309F44AC0209124013091BC
:100A600025012115310521F02130310541F511C055
:100A700020913401222319F56091280170912901F8
:100A80008B5C9E4F0E9459041150180F1093300137
:100A900016C06091280170912901209126013091A2
:100AA0002701809134012130310511F4780F01C004
:100AB000681B812F90E08B5C9E4F0E94590420910F
:100AC00034012F5F20933401332727FD3095E091C7
:100AD0002C01F0912D01818190E0821793073CF465
:100AE00010923401809130018F5F809330010E9419
:100AF00005021F91089590932F0180932E010E946B
:100B0000230284E190E090932B0180932A010E94BC
:100B1000CC030895002480FD060E660F11F0869523
:100B2000D1F7802D08955527002480FF02C0060EBE
:100B3000571F660F771F6115710521F096958795F0
:100B4000009799F7952F802D0895AA1BBB1B51E1A3
:100B500007C0AA1FBB1FA617B70710F0A61BB70B2D
:100B6000881F991F5A95A9F780959095BC01CD01D2
:100B7000089597FB092E07260AD077FD04D0E5DFFC
:100B800006D000201AF4709561957F4F0895F6F70E
:100B9000909581959F4F089597FB092E05260ED0BD
:100BA00057FD04D014D00AD0001C38F4509540955D
:100BB000309521953F4F4F4F5F4F0895F6F7909531
:100BC0008095709561957F4F8F4F9F4F0895A1E25B
:100BD0001A2EAA1BBB1BFD010DC0AA1FBB1FEE1FB7
:100BE000FF1FA217B307E407F50720F0A21BB30B02
:100BF000E40BF50B661F771F881F991F1A9469F77E
:100C000060957095809590959B01AC01BD01CF01D9
:100C10000895A0E0B0E0EFE0F6E00C948F06EC0160
:100C2000688179818A819B816115710581059105B2
:100C300021F464E279ED8BE597E02DE133EF41E0BB
:100C400050E00E94CC0579018A0127EA31E440E0B6
:100C500050E00E946E065B016C01C801B7012CEEEA
:100C600034EF4FEF5FEF0E946E069B01AC012A0D3F
:100C70003B1D4C1D5D1D57FF04C0215030404040BE
:100C80005048288339834A835B833F77C901CDB7B6
:100C9000DEB7EAE00C94AB060E940906089585E5EC
:100CA00091E00E9409060895A0E0B0E0809355010C
:100CB00090935601A0935701B09358010895FB01FA
:100CC000DC014150504048F001900D920020C9F7DE
:100CD00001C01D9241505040E0F70895FF27EE27D4
:100CE000BB27AA2760FF04C0A20FB31FE41FF51F94
:100CF000220F331F441F551F96958795779567954B
:100D000089F70097760771F7CF01BD0108952F92FB
:100D10003F924F925F926F927F928F929F92AF928B
:100D2000BF92CF92DF92EF92FF920F931F93CF93D8
:100D3000DF93CDB7DEB7CA1BDB0B0FB6F894DEBF6F
:100D40000FBECDBF09942A88398848885F846E8495
:100D50007D848C849B84AA84B984C884DF80EE80DF
:100D6000FD800C811B81AA81B981CE0FD11D0FB6E8
:100D7000F894DEBF0FBECDBFED010895F894FFCF0C
:100D800000010204080F190F08040201034000804B
:100D9000031003800320004000200010000800041E
:100DA000000200010000000000001400000000002C
:100DB0000000000000000000000000000000000033
:100DC0000000000000000000000000000000000023
:0A0DD0000000000000010000000018
:00000001FF
