:100000000C943A000C9457000C9457000C94570031
:100010000C9457000C9457000C9457000C94570004
:100020000C9457000C9457000C9457000C945700F4
:100030000C9457000C9457000C9457000C945700E4
:100040000C9457000C9457000C9457000C945700D4
:100050000C9457000C9457000C9457000C945700C4
:100060000C9457000C9457000C9457000C945700B4
:100070000C94570011241FBECFEFD4E0DEBFCDBFDC
:1000800012E0A0E0B1E0ECE5FDE102C005900D92C8
:10009000A43CB107D9F713E0A4ECB2E001C01D9273
:1000A000AE37B107E1F70E941E0D0C94AC0E0C9414
:1000B0000000FC01962F842F65E00E948B0D980FA5
:1000C000E90FF11D20830895EF92FF920F931F9384
:1000D000CF93DF938091EE02811151C08CE291E0C9
:1000E0000E94DB0C83EF91E00E945E0C81E090E0C7
:1000F0000E94540C81E090E00E94590C8AE00E941A
:100100004F0C87E0E82E83E0F82E0FE013E0C0E00C
:10011000D0E0CE0166E070E00E94940D81519D4FC9
:100120000E943C03D7018D939D937D01F8011192AC
:100130008F012196C430D10561F7E7ECF2E011920E
:1001400082E0EA3EF807D9F762E071E080910903A6
:1001500090910A030E94E10268E071E080910D0332
:1001600090910E030E94E1026EE071E080910B031A
:1001700090910C030E94E10281E08093EE02809155
:10018000000190910101039751F5C9E0D3E000E12E
:1001900013E0899199910E94F402D8018D938D0109
:1001A000B3E0CF30DB07A9F7E12CC7ECD2E014C0F5
:1001B000D801ED918D01F0E0E15FFC4F60818F2D62
:1001C0009E2D0E94950AF394B5E0FB12F1CF25967F
:1001D000E394E7E0EE1619F08E01F12CE9CFDF9100
:1001E000CF911F910F91FF90EF900C94630C809131
:1001F000EA029091EB020C94AB086115710521F0B5
:100200006130710561F403C068E972E002C06BE916
:1002100072E08091EA029091EB020C9481080895BB
:100220000F931F93CF93DF93CDB7DEB7AC970FB685
:10023000F894DEBF0FBECDBF8091C402811129C0EA
:100240000E94110761E080E00E94090742E050E04F
:1002500065EC72E080E090E00E9459068091C50252
:100260008F3F21F41092C5021092C60207EC12E0F3
:1002700029E530E047E065E084E690E00E94F10384
:1002800060E070E08DEF90E00E94240481E08093B4
:10029000C40280910001909101018230910509F41E
:1002A00062C020F4019709F0C1C045C083309105B8
:1002B00021F0049709F0BAC04BC00E942D048111AF
:1002C000B5C06DE972E0CE0101960E943F0ECE01ED
:1002D00001968C010196F80120812111FACF0E942C
:1002E000530640E0B8010E94E90CC801FC010196E8
:1002F00020812111FBCF8FE281938F010E9456064E
:1003000040E0B8010E94E90C0E94430BCE01019627
:100310000E94410C64E571E08091EA029091EB0249
:100320000E9481081092EC0261E080E00E940907BF
:1003300084E090E077C088EA92E00E94410C6DE989
:1003400071E08091EA029091EB020E94810808C05E
:100350008091EC028F5F8093EC02883C08F466C0C9
:1003600085E090E05FC00E94430B8091C6028F5FE2
:100370008093C6028091C5028330E9F028F4813071
:1003800061F0823029F411C08430E1F0853011F140
:1003900010E01E7F1D7F04E006C010E01E7FFFEF0F
:1003A000F0FB11F903E083E01DC010E08FEF80FB4C
:1003B00010F91D7FF7CF10E0EFEFE0FB10F9E0FB45
:1003C00011F9F0CF10E0FFEFF0FB10F9F0FB11F99D
:1003D00003E007C010E08FEF80FB10F980FB11F9FC
:1003E00002E084E00E94E203802F0E94DF03812F5D
:1003F0000E94EE030E94E30542E050E065EC72E0EB
:1004000080E090E00E946F0661EC72E08091EA0269
:100410009091EB020E94810860E080E00E94090751
:1004200083E090E09093010180930001AC960FB6B9
:10043000F894DEBF0FBECDBFDF91CF911F910F911A
:1004400008951F93CF93DF931F92CDB7DEB7162F7A
:10045000972FA2ECB2E0E62FF72F01C021932D9148
:100460002111FCCF40E0BF0199830E94E90C0E945A
:10047000430B812F99810F90DF91CF911F910C94A5
:10048000410C80911303909114030E94F209882378
:1004900019F05C9A5E9808955C985E9A0895CF93DF
:1004A000DF93CDB7DEB7AC970FB6F894DEBF0FBEC3
:1004B000CDBF8091ED02811105C00E945A0881E0F4
:1004C0008093ED020E94DB0781E00E94A60788234B
:1004D000D1F080910001909101018330910589F064
:1004E000069789F48091C502843018F48F5F809359
:1004F000C502BE016F5F7F4F8091C5020E9421023D
:1005000002C00E94B80583E00E94A6078823D1F0AC
:1005100080910001909101018330910589F0069747
:1005200089F48091C502823018F081508093C50211
:10053000BE016F5F7F4F8091C5020E94210202C001
:100540000E94BB0583E00E94A607882399F0809152
:10055000000190910101059769F486E090E0909385
:10056000010180930001BE016F5F7F4F8091C50242
:100570000E94210284E00E94A6078823C9F080918E
:100580000001909101018530910531F0863091058F
:1005900049F0039769F403C082E090E005C00E942F
:1005A000BE0506C085E090E09093010180930001B4
:1005B000AC960FB6F894DEBF0FBECDBFDF91CF91E2
:1005C0000895FC0171836083128213821482158264
:1005D00081E00895FC01808191810895FC011282DF
:1005E0001382648381E00895FC01A081B18110979A
:1005F00009F440C082818F5F82839C91891720F12A
:10060000128285818F5F85838830F0F01582838127
:100610008F5F838312969C9112978917A8F013829B
:1006200084818F5F848315969C911597911109C0E1
:1006300014969C911497891738F01182108281E0EA
:100640000895891708F01482928111968C91119760
:10065000981768F4938113968C911397981738F430
:1006600081E090E0348114962C91321720F080E0E4
:1006700090E0089580E00895FC01118210821282BA
:1006800013821482158208959B01E0916103F09119
:100690006203DC0111964C9111976C918091630378
:1006A000909164030994CF93DF93DC01C0913F03E1
:1006B000D0E020E030E01AC0C90163E070E00E94A1
:1006C000940DFC01ED5CFC4F8281882369F0EA17F0
:1006D000FB0751F090818C91981306C0918111967F
:1006E0008C911197981739F02F5F3F4F2C173D07CA
:1006F0001CF3E0E0F0E0CF01DF91CF910895CF93BC
:10070000C82F60E070E085E593E00E94440390917B
:1007100055039C0F8091570398172CF497FF04C042
:10072000982F915001C090E09093550361E070E0E4
:1007300085E593E0CF910C944403E0916503F0913B
:100740006603309731F0BC01809167039091680394
:1007500009940895FB01DC0112961C92ACE5B3E00C
:100760008C9181508C93A9E5B3E08C918F5F8C9331
:10077000128260E070E0CF010E94440380E090E0CC
:100780000C949D03809360030895682F80915D030E
:1007900090915E0370E00E94B20D709341036093EC
:1007A00040030895682F80915D0390915E0370E08F
:1007B0000E94B20D70935203609351030895809389
:1007C0005F030895853008F084E080933F03089527
:1007D000853008F084E08093500308958093690386
:1007E00008950F931F9360935703409358033093DA
:1007F00062032093610310936403009363031092D8
:100800006A0390935E0380935D03109266031092D7
:100810006503E9E6F3E080818E7F8D7F808383E04E
:1008200080933F0382E08093500380E10E94D203D3
:1008300082E00E94C50384E080935F0385E080939B
:1008400060031F910F910895909366038093650351
:10085000709368036093670308950F931F93CF937A
:10086000DF93809153039091540301969093540326
:1008700080935303209151033091520382179307C1
:1008800030F480916A03882309F464C13DC010925A
:1008900054031092530300E010E02FC0C80163E03E
:1008A00070E00E94940DEC01CC5BDC4F8A818823C0
:1008B00011F1988180915503981305C09981809119
:1008C0005603981729F060E070E0CE010E944403BF
:1008D00089818150898387FD3FC163E070E0CE014B
:1008E0000E94440303C0BE010E94AA03CE010E94DD
:1008F00053030097C1F70F5F1F4F8091500390E0A3
:10090000081719075CF2BDCF809142039091430311
:1009100001969093430380934203209140033091CA
:1009200041038217930708F40AC1109243031092FF
:100930004203C0E0D0E010C0CE0163E070E00E944E
:10094000940D8D5C9C4FFC012281222321F060E0FC
:1009500070E00E944403219680913F0390E0C81705
:10096000D90754F300E010E0A9C0C80163E070E0CB
:100970000E94940DEC01CD5CDC4F8A81882309F440
:100980009BC089818F5F89830E942F0E8170992778
:10099000880F81509091690391FF12C040915503D7
:1009A000552747FD50959881282F332727FD3095EF
:1009B000290F311D97FD3A954217530709F4819588
:1009C0009881980F988397FD04C020915703921740
:1009D0009CF02091690320FF0CC0892F992787FD87
:1009E000909597FF03C09195819591099091570338
:1009F00001C0880F981B988399818091580398179C
:100A00002CF462E070E0CE010E9444034981242F5F
:100A1000332727FD309580915803992787FD9095BE
:100A20000197281739070CF099C021C080915A030B
:100A30008F5F80935A0390916003891710F0109292
:100A40006A0381E090E00E949D0336C01A82809183
:100A50005C03815080935C0361E070E085E593E086
:100A60000E94440329C0BF01CE010E94AA0340E0B6
:100A700016C063E070E00E94940DFC01EC5BFC4F3B
:100A80008281882359F0EC17FD0741F0908188811D
:100A9000981304C091818981981761F04F5F842F6A
:100AA000992787FD90952091500330E08217930796
:100AB00004F302C03097B9F60F5F1F4F80913F03D8
:100AC00090E0081719070CF450CF80915C0388233D
:100AD00019F0C0915F0301C0C2E00E942F0E6C2F7D
:100AE00070E00E94C60D892B51F52BC0C90163E04F
:100AF00070E00E94940DEC01CD5CDC4F2F5F3F4F06
:100B00008A81811123C0198211E00E942F0E609109
:100B10005703772767FD70950E94C60D88831A8357
:100B2000CE010E945303892B81F780915C038F5F74
:100B300080935C0362E070E0CE010E94440381E098
:100B400012C0E0913F03F0E020E030E02E173F07B5
:100B50006CF2F5CF80E007C01A82CDCE80915603AB
:100B6000481374CF63CFDF91CF911F910F910895F8
:100B700081E00C947F038FEF0C947F03A0915003CE
:100B8000B0E020E030E01BC0C90163E070E00E94EB
:100B9000940DFC01EC5BFC4F2F5F3F4F8281811174
:100BA0000EC080915503909156039183808381E01C
:100BB000828380915B038F5F80935B0308952A1784
:100BC0003B0714F308950F931F93CF93DF9300D047
:100BD000CDB7DEB710925403109253031092430323
:100BE0001092420320E030E008C063E070E00E9411
:100BF000940D8C5B9C4FFC011282C9012F5F3F4F0B
:100C00004091500350E0841795077CF320E030E0DA
:100C100008C063E070E00E94940D8D5C9C4FFC0165
:100C20001282C9012F5F3F4F40913F0350E084176C
:100C300095077CF310E010C019830A8360E070E030
:100C4000CE0101960E9444030F5F01C000E0809135
:100C5000580308178CF31F5F809157031817B4F3DC
:100C600087FD8F5F85958E7F809355038091580314
:100C700081508093560361E070E085E593E00E9427
:100C8000440310925C031092590310925A0310927D
:100C90005B0381E080936A030F900F90DF91CF9107
:100CA0001F910F91089580915903089580915B03DE
:100CB0000895FB019B01240F351F861B970B07C06E
:100CC000F999FECF72BD61BDF89A60B56193BC0120
:100CD0006E0F7F1FE217F30799F7CA010895FB0112
:100CE0009B01240F351F861B970B08C0A191F99912
:100CF000FECF72BD61BDA0BDFA9AF99ABC016E0F1C
:100D00007F1FE217F30791F7CA010895E1E6F0E0CB
:100D100080E880831082A89584B7877F84BFE0E64F
:100D2000F0E08081886180831082089510928000B5
:100D300084E08093810010928500109284000895D1
:100D40002091840030918500C9010895209184008C
:100D500030918500A901481B590B483E5340B0F71C
:100D6000C90108952091840030918500820F931F5E
:100D70000C94A6068530A0F4673090F421E030E0B2
:100D8000062E01C0220F0A94EAF7E82FF0E0822F26
:100D90008095E559FC4F908189234111822B8083F6
:100DA0000895853088F4673078F421E030E0062E2D
:100DB00001C0220F0A94EAF7E82FF0E0E559FC4F52
:100DC0009081922381E009F480E00895609170039E
:100DD000E62FF0E0E559FC4F80810E9437078091B3
:100DE00070038F5F853018F480937003089510921C
:100DF0007003089510926B0310926C0310926D03B0
:100E000010926E0310926F0308950E941E070C94B7
:100E1000FA06811105C0662311F0429A089542989E
:100E200008953A9A429A0895FC01FF2784A1892BDC
:100E300084A385A1892B85A381E00895CF93DF93B7
:100E4000CFE6D2E0899199910E94140782E0CD37D4
:100E5000D807C1F7CDE7D2E0899199910E94140794
:100E600082E0C738D807C1F7DF91CF910895E091AC
:100E70007103F0E0EE0FFF1FE358FD4F2081318139
:100E8000F901FF2795A1932B95A3EFE6F2E02081CE
:100E90003181D901BB2780FF07C095962C9195978A
:100EA000932F9095922304C095969C919597932BA0
:100EB00095969C938695329692E0ED37F90739F72F
:100EC000E62FF0E0EE0FFF1FE358FD4F8081918188
:100ED000FC01FF2725A1892F8095822385A360939C
:100EE000710308956230710519F120F461307105C4
:100EF00059F515C06330710521F06430710521F595
:100F000009C0FC01FF2724A1892F292B24A395A127
:100F100080950CC0FC01FF2784A1892B0FC0FC0128
:100F2000FF2784A19095892384A385A1892309C0E3
:100F3000FC01FF2784A1292F2095822384A385A16A
:100F4000892B85A381E0089580E00895E82FF0E0E3
:100F5000EE0FFF1FEE58FC4F8081882329F081E0BF
:100F600090E02181222311F080E090E00895E82FA5
:100F7000F0E0EE0FFF1FEE58FC4F8081811105C09D
:100F800081E090E02181211102C080E090E008958D
:100F9000E82FF0E0EE0FFF1FEE58FC4F8081089520
:100FA000E82FF0E0EE0FFF1FEE58FC4F81E090813C
:100FB000911180E008954F925F927F928F929F925D
:100FC000AF92BF92CF92DF92EF92FF920F931F9357
:100FD000CF93DF9300D0CDB7DEB752E7452E53E075
:100FE000552E63E7E62E63E0F62E77E8C72E72E013
:100FF000D72EE2E07E2EF2018081F7018083F60198
:10100000019111916F0148019924F40194A1A12E3D
:10101000BB2485A18A219A2129F0882341F024E06C
:1010200030E00AC0882331F022E030E005C023E040
:1010300030E002C021E030E064E070E0C8012983C4
:101040003A830E94720762E070E0C8010E94720752
:10105000872D8A95F1F7F40183A190E08A219B21E5
:1010600041E029813A81892B09F040E0F201408377
:10107000B901C8010E947207F2E04F0E511C82E0D4
:10108000E80EF11CECE74E16E3E05E0609F0B3CF84
:101090000F900F90DF91CF911F910F91FF90EF90E4
:1010A000DF90CF90BF90AF909F908F907F905F9098
:1010B0004F9008950895FC018589968960EF70E04E
:1010C0000E94940D9C016485868590E070E00E94EA
:1010D000940DBC01660F771F660F771FC9010E9430
:1010E000B20D63830895CF93DF93EC01E989FA8908
:1010F00040E06D858B899C8909951D86DF91CF9194
:101100000895CF93DF93EC0178876F837E836D839F
:101110001A8619861B8684E0888B8C87CE010E94F4
:101120005B08CE010E9473081982188281E08A83CD
:10113000DF91CF910895FC0166870C945B08FC0158
:101140006787089541E0FC0125813681232B09F44E
:1011500040E0842F0895EF92FF920F931F93CF9357
:10116000DF93EC010D811E810115110509F4ECC01E
:1011700088819981009779F0019799838883892BD9
:1011800009F0E2C0CE01DF91CF911F910F91FF9046
:10119000EF900C9473088A81882309F4D5C081509C
:1011A0008A838111D1C0D801EC91E11104C0CE0134
:1011B0000E947308C7C051E0D80111968C91119715
:1011C000833219F050E0119602C0D80112964C916A
:1011D0004B3211F04D3211F4119601C040E09D01E7
:1011E00060E080E006C06AE00E948B0D8053890FAA
:1011F00061E089012F5F3F4FD8019C91792F705397
:101200007A3088F3E03409F44EC084F4EA3369F1AB
:101210003CF4E03209F468C0EA3209F093C03EC001
:10122000EC3359F0EE3309F08DC00BC0E8340CF408
:1012300042C0EB3509F086C01BC009871A871B86A0
:10124000B2CF2B852F5F2B87811101C082E033271E
:1012500027FD309590E0281739070CF0A4CF0985B9
:101260001A850115110509F09ECF0F8118859BCFB6
:101270002B85332727FD309590E0019728173907F4
:1012800009F491CFF8018F018191882309F48BCF64
:101290008B3509F488CF8E33B1F785CF882309F4D5
:1012A00082CF8C8704C0882309F47DCF8E87CE013E
:1012B0000E945B0878CFFF27E7FDF095E05BFD4FCC
:1012C000908151119F5F6111888B4B3211F4945FB3
:1012D00003C04D3209F49C5088898F5F6CE00E94F6
:1012E0008B0DE92EE80E01C0E12C980191E0901BD6
:1012F0008901F92EF20EF90180812F5F3F4F8F3265
:10130000B9F3FF0CFF0C8E3229F48F2D8695F80E61
:10131000890104C08C3211F48901F694E989FA89B3
:101320004F856E2D8B899C890995ED862C812A83AA
:101330008B8190E06F2D70E00E94940D821B9109CB
:10134000998388831E830D83DF91CF911F910F9125
:10135000FF90EF900895FC01CB01768B658B528B4B
:10136000418B348B238B24E62787158611821082CC
:10137000128262E370E00E94940D68EE73E00E94B6
:10138000B20D648384E0848788EC8687CF0108955A
:10139000FC01618342830895FC01662311F0411131
:1013A00003C01182128208956832D8F0362F385265
:1013B000832F6CE00E94A60D282F64EF0E948B0DF6
:1013C000830FA581B681A80FB11D8C9101C08695B0
:1013D0002150E8F7818390E0642F70E00E94940D23
:1013E00092830895FC0180818F5F808391818917AA
:1013F00008F0108281E020819281291708F080E0B6
:101400000895FC017483638356834583118212829D
:101410000895009791F0FC012381621B67FD0AC0CB
:10142000772767FD7095248130E081E090E06217B6
:10143000730724F080E090E0089580E00895CF9352
:10144000DF93FC01822F309789F19181491770F564
:101450002281821758F52381621B67FD27C0A62FC2
:10146000BB27A7FDB095C481D0E0AC17BD07F4F44D
:10147000692F0E948B0D480F6581CD0170E00E949D
:10148000940DDC011696842F869586958695AE0F71
:10149000BF1FA80FB11D2C9130E0477002C03595D9
:1014A00027954A95E2F7822F817001C080E0DF9195
:1014B000CF910895182F092FF62E0E9496060E94AC
:1014C000A006C12FD02F01C0EF018E819F810E9405
:1014D000A606E881F9818A819B8109952E813F8149
:1014E0008C819D81280F391F3F832E830E94A00687
:1014F000E12FF02F2FEF3FEF60E014C046815781BE
:10150000DC01A41BB50BAD014F3FBFE75B07E0F269
:101510005195419551094217530710F49A01EF0173
:101520006F5F38966F11EACFD0CF462F692F0C949A
:10153000BA064F925F926F927F928F929F92AF9274
:10154000BF92CF92DF92EF92FF920F931F93CF93B0
:10155000DF931F92CDB7DEB7662E742E462E55242C
:1015600047FC5094481A510887FD5394072F1127C0
:1015700007FD1095091B110997FD139557FC04C031
:10158000CC24C394D12C03C0CC24CA94DC2C17FDEA
:1015900004C0AA24A394B12C03C0AA24AA94BA2CF0
:1015A00057FE03C051944194510817FF03C0119591
:1015B0000195110940165106A4F07201F594E794C3
:1015C0004C010CC0672DC4010E94950AE01AF10A73
:1015D000F7FE03C0E40CF51C9A0C8C0C8610F2CFBD
:1015E00015C07801F594E7944C010EC0672DC40135
:1015F00079830E94950AE418F5087981F7FE03C003
:10160000E00EF11E8C0C9A0C9712F0CF672DC401DE
:101610000F90DF91CF911F910F91FF90EF90DF908E
:10162000CF90BF90AF909F908F907F906F905F9082
:101630004F900C94950AFF920F931F93CF93DF93D3
:10164000182FF92E062FC72FD42F792F0E94990A11
:101650004D2F612F7C2F812F9F2D0E94990A4D2F96
:10166000602F7C2F802F9F2D0E94990A4D2F602F75
:101670007C2F812F9C2F0E94990ADF91CF911F917F
:101680000F91FF9008950E94FA0610923001109277
:101690002C010895DF92EF92FF920F931F93CF9347
:1016A000DF93E82E8B01F62ED12E2091220130916E
:1016B0002301C0E021303105C1F049C02D2F4C2F4E
:1016C0006E2DCF010E941F0A682F8D2F800F9D2D38
:1016D0000E94950ADF5F01C0D0E0E0912801F091FF
:1016E00029018281D81750F3CF5FD12EDC1AE09107
:1016F0002801F09129018181C81770F3C0E007C06B
:1017000060E08C2F800F9D2D0E94950ACF5FE091A5
:101710002801F09129018281C81790F3DA9431C031
:101720002D2F4C2F6E2DCF010E941F0A682F8F2D59
:101730009D2F910F0E94950ADF5F01C0D0E0E091DC
:101740002801F09129018281D81750F3CF5FFC2E38
:10175000F00EE0912801F09129018181C81770F302
:10176000C0E007C060E08F2D9C2F910F0E94950A6A
:10177000CF5FE0912801F09129018281C81790F391
:10178000F3948F2D9D2DDF91CF911F910F91FF909D
:10179000EF90DF9008951F93CF93DF93182FEC0104
:1017A00009C00E944A0BBC019C2F911B65303CF480
:1017B00077FD05C09C2F911B89918111F2CF892F54
:1017C000DF91CF911F9108950F931F93CF93DF93D4
:1017D0008C019B0110922C0110922F01C0912801C5
:1017E000D0912901209709F447C06091260170919A
:1017F0002701898190E00E94940DBC0180912A010B
:1018000090912B010E94B20DCB016AE070E00E9422
:10181000940D90932E0180932D01309325012093F8
:10182000240140E250E0B80180E391E00E94460EBE
:10183000209120013091210121303105E9F4D801B6
:101840000D900020E9F7CD010197698170E06F5F8D
:101850007F4F801B0E948B0D81502091220130917F
:1018600023012130310511F497E001C095E098176C
:1018700018F48EEF80932F01DF91CF911F910F917C
:10188000089520912201309123012130310511F476
:1018900076E001C070E060E00E94E40B0895E6E2AB
:1018A000F1E08083118208959093210180932001BB
:1018B0000895909323018093220108959093290124
:1018C000809328010895CF9380917C0390917D03AC
:1018D000019690937D0380937C0320912D0130919C
:1018E0002E018217930708F463C010927D031092B3
:1018F0007C03E0912C01F0E0E05EFE4F80898111D5
:1019000002C010922C01C0912C018C2F90E0FC01A0
:10191000E05EFE4F2089222309F44AC02091200175
:10192000309121012115310521F02130310541F59A
:1019300011C020912F01211123C0609124017091C9
:101940002501805D9E4F0E94CB0BC150C80FC093F4
:101950002C0116C060912401709125012091220173
:101960003091230180912F012130310511F4780F3E
:1019700001C0681B8C2F90E0805D9E4F0E94CB0BB6
:1019800020912F012F5F20932F01332727FD3095C2
:10199000E0912801F0912901818190E0821793075D
:1019A0003CF410922F0180912C018F5F80932C01C9
:1019B000CF910C94E60690932B0180932A010E940C
:1019C000050784E190E090932701809326010C9411
:1019D000430BCF93DF9300D000D0CDB7DEB7382FC5
:1019E000FB0184E689838AE08A8381E08B831C8201
:1019F00050E013C0832F622F0E94A60D411104C036
:101A0000811102C0213041F4982F905D9193622F93
:101A10000E948B0D381B41E05F5FA1E0B0E0AC0F8E
:101A2000BD1FA50FB11D2C912111E4CF10820F9085
:101A30000F900F900F90DF91CF9108950F931F9308
:101A4000CF93DF93CDB7DEB7A8970FB6F894DEBF7C
:101A50000FBECDBF8E010F5F1F4F88E2F8011192BC
:101A60008A95E9F781E492E09A83898386E090E0A1
:101A70009E838D8387EF90E09A87898788E391E042
:101A80009E878D8724E630E03A8B298B28E630E06C
:101A90003E8B2D8B2FE432E03A8F298F2AE136E0FE
:101AA0003E8F2D8F20E131E03AA329A39EA38DA381
:101AB0000E94860644E151E068E873E185E193E025
:101AC0000E94010A9093140380931303549A5C9824
:101AD000569A5E989C014CEC59E064E670E08CE10B
:101AE00093E00E94AB099093EB028093EA0268ECCA
:101AF0000E949B0865E0C8010E945A0A80E090E0BD
:101B0000A8960FB6F894DEBF0FBECDBFDF91CF9180
:101B10001F910F910895002480FD060E660F11F0AD
:101B20008695D1F7802D08955527002480FF02C0A7
:101B3000060E571F660F771F6115710521F09695E8
:101B40008795009799F7952F802D0895991B79E037
:101B500004C0991F961708F0961B881F7A95C9F73D
:101B600080950895AA1BBB1B51E107C0AA1FBB1F8C
:101B7000A617B70710F0A61BB70B881F991F5A9519
:101B8000A9F780959095BC01CD01089597FB072E8C
:101B900016F4009407D077FD09D00E94B20D07FC1F
:101BA00005D03EF4909581959F4F0895709561956D
:101BB0007F4F08958F929F92AF92BF92CF92DF9204
:101BC000EF92FF92CF93DF93EC01688179818A8154
:101BD0009B81611571058105910521F464E279ED20
:101BE0008BE597E02DE133EF41E050E00E946E0E6F
:101BF00049015A0127EA31E440E050E00E94550EC5
:101C00006B017C012CEE34EF4FEF5FEFC501B401A7
:101C10000E94550EAB01BC01C40ED51EE61EF71E78
:101C2000F7FE06C081E0C81AD108E10880E8F80A8A
:101C3000C882D982EA82FB82E894D7F8EE24FF2496
:101C4000C601DF91CF91FF90EF90DF90CF90BF90D2
:101C5000AF909F908F9008950E94DA0D089580E5CF
:101C600091E00E94DA0D0895A0E0B0E08093500169
:101C700090935101A0935201B09353010895FB0139
:101C8000DC0101900D920020E1F70895FB01DC01D9
:101C90004150504048F001900D920020C9F701C01A
:101CA0001D9241505040E0F70895FF27EE27BB27D3
:101CB000AA2760FF04C0A20FB31FE41FF51F220F65
:101CC000331F441F551F969587957795679589F71C
:101CD0000097760771F7CF01BD010895052E97FB98
:101CE00016F4009407D057FD0DD00E948A0E07FC11
:101CF00009D07EF490958095709561957F4F8F4FB8
:101D00009F4F089550954095309521953F4F4F4FE7
:101D10005F4F0895A1E21A2EAA1BBB1BFD010DC047
:101D2000AA1FBB1FEE1FFF1FA217B307E407F5078B
:101D300020F0A21BB30BE40BF50B661F771F881F67
:101D4000991F1A9469F760957095809590959B01FD
:0C1D5000AC01BD01CF010895F894FFCF55
:101D5C000100050505050101050505050101030344
:101D6C00030101013D393633302D2B282624222046
:101D7C000000000000001400000000000000000043
:101D8C000000000000000000000000000000000047
:101D9C000000000000000000000000000000000037
:101DAC00010000002A383C472F2F2F3E333C4423A0
:101DBC002F2F4123472F2F2F3E32202F2F2F442BF5
:101DCC002F2F2F442B2F2F2F442B2F2F2F44232BF0
:101DDC002F2F412346232F2F2F44232F2F412347CF
:101DEC002F2F2F202F2F2F202020203E002A384548
:101DFC0033454242453245423342444441414434E6
:101E0C0044413341413241453345414142424334DF
:101E1C0043423342414147474545424245324542A0
:101E2C0033424444414144344441334141324145BD
:101E3C0033454141424243344342334241414242A1
:101E4C003E2000010305203B0200009220EB737D35
:101E5C005FDE3DA552EA7A14004A222229BA2ED01E
:101E6C00050014C0010020A4126A2B9A74A372A35B
:101E7C0038ED498F38CE2AA712AA2AAE4910041081
:101E8C00145444380E11152A250000EA5BEB3A4F26
:101E9C00726B3BCF73CF134F7AED5B9774247B5DE2
:101EAC00564972FD5B6F5B6F7BEF136F7FEF57CE05
:101EBC003897246D7B6D2BED5FAD5AAD24A7720066
:101ECC004000200010000800040002000103400044
:101EDC008003100380032003800340032000800351
:101EEC0010090B0002040507432B00430047414D2A
:101EFC0045204F56455220005350414345592052DE
:101F0C00454144592056312E36204259204D5048D7
:041F1C0020004C0055
:00000001FF
