:100000000C944C000C9469000C9469000C946900E9
:100010000C9469000C9469000C9469000C946900BC
:100020000C9469000C9469000C9469000C946900AC
:100030000C9469000C9469000C9469000C9469009C
:100040000C9469000C9469000C9469000C9469008C
:100050000C9469000C9469000C9469000C9469007C
:100060000C9469000C9469000C9469000C9469006C
:100070000C9469000C9469000C9469000C9469005C
:100080000C9469000C9469000C9469000C9469004C
:100090000C9469000C94690011241FBECFEFD4E0CA
:1000A000DEBFCDBF11E0A0E0B1E0E8E1FBE002C0BF
:1000B00005900D92A83CB107D9F711E0A8ECB1E08A
:1000C00001C01D92A63DB107E1F70E94B1000C945A
:1000D0008A050C940000DF93CF9300D00F92CDB728
:1000E000DEB78091C801882329F41092CA011092CA
:1000F000C90120C08091C9019091CA012AE030E075
:10010000B9010E946705482FCB01B9010E9467051C
:10011000805D8983405D4A831B82CE0101960E94E7
:1001200098048091C9019091CA0101969093CA01E7
:100130008093C9010F900F900F90CF91DF91089598
:100140000E94680180E00E943A01882331F080918A
:10015000C80191E089278093C80108950E94BB04DB
:1001600008950F931F93DF93CF93CDB7DEB76897B2
:100170000FB6F894DEBF0FBECDBF8E010F5F1F4FCD
:1001800088E1F80111928A95E9F78EEA90E09A8366
:1001900089838DE790E09E838D8380EA90E09A8743
:1001A000898788E391E09E878D872BE630E03A8B44
:1001B000298B9E8B8D8B0E9404018AEF90E00E9418
:1001C0003D0583E091E00E94B60480E090E00E944B
:1001D000AC0481E090E00E94B1040E94720180E0D2
:1001E00091E00E949804C80163E00E947F0280E0D1
:1001F00090E068960FB6F894DEBF0FBECDBFCF91EA
:10020000DF911F910F910895E1E6F0E080E880838F
:100210001082A89584B7877F84BFE0E6F0E08081F4
:1002200088618083108208951092800084E080931A
:10023000810010928500109284000895209184001E
:1002400030918500C9010895209184003091850086
:10025000A901481B590B63E0483E5607A8F7C9019E
:1002600008952091840030918500820F931F0E9491
:1002700024010895882361F48091CB01882329F01B
:100280008091CC0191E08927089580E090E0089565
:1002900080E00895882351F48091CB01882319F4DC
:1002A0008091CC01089580E090E0089580E0089569
:1002B000882319F48091CB01089580E00895882364
:1002C00029F48091CB0191E08927089580E0089579
:1002D0008091CB018093CC0181E04F9B80E08093A3
:1002E000CB01089557985F9808958530B8F467302A
:1002F000A8F421E030E002C0220F331F6A95E2F734
:1003000090E0322F3095FC01E353FE4F50813523AE
:100310004111322B83539E4FFC0130830895853069
:1003200088F4673088F421E030E002C0220F331FE8
:100330006A95E2F7E82FF0E0E353FE4F90819223B5
:1003400081E019F480E0089580E008956091D20181
:10035000E62FF0E0E353FE4F80810E94FA01809186
:10036000D2018F5F8093D201853010F01092D201BC
:1003700008951092CD011092CE011092CF011092EB
:10038000D0011092D10108950E94E1010E94B901AB
:100390000895FC01F07025A1292B25A30895FC01E7
:1003A000F07025A1892F8095822385A30895FC01F3
:1003B000F07024A1292B24A385A1892B85A381E09A
:1003C0000895CF93DF93C9E8D1E0899199910E9474
:1003D000D70181E0C739D807C1F7CFE7D1E08991CC
:1003E00099910E94D70181E0C938D807C1F7DF9100
:1003F000CF9108950F931F93CF93DF93182F062F5C
:10040000E091D301F0E0EE0FFF1FE158FE4F808135
:1004100091810E94C901C9E8D1E08881998110FFCA
:1004200003C00E94CF0102C00E94C901229681E050
:10043000C739D80711F01695F0CFE02FF0E0EE0F96
:10044000FF1FE158FE4F808191810E94CF010093F0
:10045000D301DF91CF911F910F910895FC01009777
:1004600089F08381681B67FD0AC0772767FD709557
:10047000248130E081E090E06217730724F080E08F
:1004800090E0089580E00895CF93DF93FC01A62FBC
:10049000822F309781F16181461768F59281291783
:1004A00050F59381A91BA7FD26C0BB27A7FDB095DA
:1004B0009481C92FD0E0AC17BD07ECF40E944C0525
:1004C000480F6581CD0170E00E945505DC0116964C
:1004D000842F869586958695AE0FBF1FA80FB11DF8
:1004E0002C9130E0477002C0359527954A95E2F788
:1004F000822F817001C080E0DF91CF910895CF926B
:10050000DF92FF920F931F93CF93DF938C01F62E10
:100510000E9414010E941E01812FC02EE60103C01B
:100520008F2FAE2FED016E01D82EE6018E819F81B7
:100530000E942401E881F9818A819B8109952E819D
:100540003F818C819D81280F391F3F832E830E941C
:100550001E01E02FF12F2FEF3FEF60E018C0468122
:100560005781DC01A41BB50BAD01BFE74F3F5B0713
:10057000B8F2509541955F4F4217530730F49A01F6
:10058000CE2EE6016E01DF2EE6016F5F38966F1505
:1005900030F3CCCF41E0662309F440E0692F0E949C
:1005A00075010895692F0E948F01089541E0662327
:1005B00009F440E0692F0E94750108954F925F92FF
:1005C0006F927F928F929F92AF92BF92CF92DF9263
:1005D000EF92FF920F931F93DF93CF930F92CDB7BC
:1005E000DEB7862E942E062F112707FD1095282F93
:1005F000332727FD3095021B130B472E552447FC4C
:100600005094292F332727FD3095421A530A17FD9E
:1006100004C051E0652E712C03C066246A94762CC8
:1006200057FC04C041E0C42ED12C03C0CC24CA9492
:10063000DC2C17FF03C0109501951F4F57FE04C017
:10064000509441945108539404151505A4F0780171
:10065000F594E7945C010CC0C501692D0E94D60297
:10066000E418F508F7FE03C0E00EF11EBC0CA60C62
:10067000A81491F715C07201F594E7945C010EC0BF
:10068000C501692D79830E94D602E01AF10A7981A9
:10069000F7FE03C0E40CF51CA60CBC0CB71681F7E2
:1006A000C501692D0E94D6020F90CF91DF911F9155
:1006B0000F91FF90EF90DF90CF90BF90AF909F9001
:1006C0008F907F906F905F904F900895DF92EF92A0
:1006D000FF920F931F93E82ED92EF62E072F142F7B
:1006E0007D2D0E94DE028E2D9D2D6E2D702F412FAF
:1006F0000E94DE028F2D9D2D6F2D702F412F0E94A5
:10070000DE028E2D902F6F2D702F412F0E94DE0262
:100710001F910F91FF90EF90DF9008950E94B90113
:100720001092A8011092A3010895BF92CF92DF9278
:10073000EF92FF920F931F93182FE62E072FD62EBE
:10074000F72E2091990130919A012130310511F055
:10075000CC244CC0CC2417C0BF2CBE0CCF01612FC1
:100760004C2D2F2D0E944402682F8B2D902F0E941C
:10077000D602F394E0919F01F091A0018281F816D6
:1007800058F3C3940150E0919F01F091A001818141
:10079000C81610F4FF24EECF10E007C0812F8E0D95
:1007A000902F60E00E94D6021F5FE0919F01F091C0
:1007B000A0018281181790F3F02EFA9432C0BD2C5C
:1007C000B00ECF01612F4C2D2D2D0E944402682FB9
:1007D0008E2D9B2D0E94D602D394E0919F01F09123
:1007E000A0018281D81658F3C394E394E0919F014D
:1007F000F091A0018181C81610F4DD24EECF10E045
:1008000007C08E2D912F900F60E00E94D6021F5FCF
:10081000E0919F01F091A0018281181790F3DE2CE6
:10082000D3948D2D9F2D1F910F91FF90EF90DF900E
:10083000CF90BF900895EF92FF921F93CF93DF93D5
:10084000E82EE7017E01F92EE70110E008C00E94C2
:100850009503BC011F5F85302CF477FD03C089919F
:100860008823A9F7812FDF91CF911F91FF90EF90FF
:1008700008950F931F93CF93DF938C019B011092E8
:10088000A3014093A4011092A701C0919F01D091B0
:10089000A001209709F447C060919D0170919E01CD
:1008A000898190E00E945505BC018091A101909141
:1008B000A2010E946705CB016AE070E00E94550525
:1008C0009093A6018093A50130939C0120939B01F6
:1008D00088EA91E0B80140E250E00E947B058091F7
:1008E00097019091980181309105E9F4D8010D901C
:1008F0000020E9F7CD010197698170E06F5F7F4FBC
:10090000801B0E944C0581502091990130919A01E1
:100910002130310511F497E001C095E0981718F4E3
:100920008EEF8093A701DF91CF911F910F910895D2
:100930002091990130919A012130310511F476E02E
:1009400001C070E060E04FEF0E9439040895809389
:100950009D0110929E0108959093980180939701B4
:10096000089590939A018093990108959093A0011E
:1009700080939F0108951F938091D4019091D50198
:1009800001969093D5018093D4012091A5013091D7
:10099000A6018217930708F46CC01092D50110923B
:1009A000D401E091A301F0E0E956FE4F818988234C
:1009B00059F48091A401823008F45BC08150E7E9CA
:1009C000F1E085871092A3011091A301812F90E09F
:1009D000FC01E956FE4F2189222309F44AC02091E7
:1009E0009701309198012115310521F02130310511
:1009F00041F511C02091A701222319F560919B01B7
:100A000070919C0188559E4F0E941B041150180F35
:100A10001093A30116C060919B0170919C012091DD
:100A2000990130919A018091A7012130310511F48B
:100A3000780F01C0681B812F90E088559E4F0E945F
:100A40001B042091A7012F5F2093A701332727FDC7
:100A50003095E0919F01F091A001818190E0821793
:100A600093073CF41092A7018091A3018F5F8093BC
:100A7000A3010E94A6011F9108959093A201809363
:100A8000A1010E94C40184E190E090939E018093B3
:100A90009D010E948E030895002480FD060E660FBE
:100AA00011F08695D1F7802D08955527002480FFF9
:100AB00002C0060E571F660F771F6115710521F0E2
:100AC00096958795009799F7952F802D0895AA1BE5
:100AD000BB1B51E107C0AA1FBB1FA617B70710F029
:100AE000A61BB70B881F991F5A95A9F7809590955B
:100AF000BC01CD010895FB01DC014150504048F09C
:100B000001900D920020C9F701C01D924150504044
:080B1000E0F70895F894FFCF0F
:100B1800303000010305203B0200009220EB737D7A
:100B28005FDE3DA552EA7A14004A222229BA2ED065
:100B3800050014C0010020A4126A2B9A74A372A3A2
:100B480038ED498F38CE2AA712AA2AAE49100410C8
:100B5800145444380E11152A250000EA5BEB3A4F6D
:100B6800726B3BCF73CF134F7AED5B9774247B5D29
:100B7800564972FD5B6F5B6F7BEF136F7FEF57CE4C
:100B88003897246D7B6D2BED5FAD5AAD24A77203AA
:100B98004000800310038003200040002000100064
:100BA800080004000200010000000000001400001A
:100BB800000000000000000000000000000000002D
:100BC800000000000000000000000000000000001D
:080BD800000000000000000015
:00000001FF
